:020000000C945E
:1000020034040C9400000C9400000C9400000C9436
:1000120000000C9400000C9400000C9400000C945E
:1000220000000C9400000C9400000C9400000C944E
:1000320000000C9400000C9400000C9400000C943E
:1000420000000C9400000C9400000C9400000C942E
:10005200000080003F0000000000000000000000DF
:10006200000000000000000000000000000000008E
:10007200000000000000000000000000000000007E
:10008200000000000000000000000000000000006E
:10009200000000000000000000000000000000005E
:1000A200000000000000000000000000000000004E
:1000B200000000000000000000000000000000003E
:1000C200000000000000000000000000000000002E
:1000D200000000000000000000000000000000001E
:1000E2000000000000000000800010000800000076
:1000F20000000000000000000000C040C00000003E
:1001020000000000000000000000000080C00000AD
:1001120000000000000000000000000000000000DD
:1001220000000000000000000000000000000000CD
:1001320000000000000000000000000000000000BD
:1001420000000000008080000000000000000000AD
:10015200000000000000000000000000000000009D
:100162000000000000C03C06020000000000000089
:1001720000000000000000E036000100020CE00078
:10018200000000000000000000E0301C0300011F1E
:10019200B00000000000000000000000001FF0009E
:1001A2000000000000000000000000008040100E6F
:1001B20003000000000000940000000000000000A6
:1001C200000000000000000002061400B000000061
:1001D200000000000000000000000000000000001D
:1001E20000000000FA010000000000000000000012
:1001F2000000008050180601000000000000021CF0
:100202006000000000004010090100000000000032
:1002120007608000000000000000000000000001F4
:100222003FC08000000080000018080401000000A8
:1002320000000000000000D60000000000000000E6
:10024200C00070080403000100000000F900000073
:10025200000000000000000000000000000000009C
:10026200000000780700000000000000000000000D
:1002720000F80E0300000000000000000000000073
:10028200013EA0C0100D00000000000000000000B0
:100292000000FF000000000000000000000000005D
:1002A20000007F38C80301000000000000000000C9
:1002B2000000000000B8020100E02018040202035E
:1002C200000000000000000000000000FF0000002D
:1002D200000000000000000000000000000000001C
:1002E200000000BF00000000000000000000C0107D
:1002F2000F010000000000000000000000000000EC
:1003020000000000000000000000000000000000EB
:10031200000007F8000000000000000000000000DC
:1003220000000000DF0000000000000000000000EC
:1003320000000000F003000F1910202060C00080B0
:1003420000000000000000000000000000FE0000AD
:10035200000000000000000000000000000000009B
:100362000000007FC000000000000010100C070019
:10037200000000000000000000000000000000007B
:10038200000000000000000000000000000000006B
:100392000000000007040000000000000000000050
:1003A200000000007F0000000000000000000000CC
:1003B200000000700F0000000000000000000001BB
:1003C200010204000418103000000080E03E00002A
:1003D200000000000000000000000000000000001B
:1003E20000000000010104040810101808000000B9
:1003F20000000000000000000000000000000000FB
:1004020000000000000000000000000000000000EA
:1004120000000000000000000000000000000000DA
:1004220000000000000000000000000000000000CA
:1004320000000000000000000000000000000000BA
:100442000000000000000408080E03010000000084
:10045200000000000000050720600000000000000E
:10046200005F00000007000700147F147F14242A95
:100472007F2A12231308646236495522500005036D
:100482000000001C2241000041221C00082A1C2AF4
:100492000808083E0808005030000008080808084C
:1004A200003030000020100804023E5149453E0051
:1004B200427F400042615149462141454B31181467
:1004C200127F1027454545393C4A49493001710997
:1004D20005033649494936064949291E0036360080
:1004E200000056360000000814224114141414149B
:1004F20041221408000201510906324979413E7E27
:100502001111117E7F494949363E414141227F41C5
:1005120041221C7F494949417F090901013E41416C
:1005220051327F0808087F00417F41002040413F4F
:10053200017F081422417F404040407F0204027F35
:100542007F0408107F3E4141413E7F090909063E72
:100552004151215E7F091929464649494931010124
:100562007F01013F4040403F1F2040201F7F201855
:10057200207F63140814630304780403615149451E
:100582004300007F4141020408102041417F0000E6
:1005920004020102044040404040000102040020E5
:1005A200545454787F4844443838444444203844AE
:1005B20044487F3854545418087E090102081454E0
:1005C200543C7F0804047800447D40002040443DB0
:1005D20000007F10284400417F40007C041804780A
:1005E2007C0804047838444444387C141414080801
:1005F2001414187C7C080404084854545420043F02
:100602004440203C4040207C1C2040201C3C403088
:10061200403C44281028440C5050503C4464544CF4
:1006220044000836410000007F0000004136080007
:1006320002010204027F4141417F0000FF000200EB
:100642000400080004000200FF000000FF00180080
:100652002400420081000000000000000000FF00B2
:1006620002000400080004000200FF000000FF0076
:100672001800240042008100000000000000000079
:10068200FF0002000400080004000200FF00000056
:10069200FF001800240042008100810000000000D9
:1006A2000000FF0002000400080004000200FF0036
:1006B2000000FF00180024004200420081000000F8
:1006C20000000000FF000200040008000400020015
:1006D200FF000000FF0018002400240042008100F7
:1006E200000000000000FF000200040008000400F7
:1006F2000200FF000000FF00180018002400420062
:100702008100000000000000FF0002000400080059
:1007120004000200FF000000FF00FF001800240098
:1007220042008100000000000000FF0002000400FF
:10073200080004000200FF0000000000FF00180093
:10074200240042008100000000000000FF000200BF
:100752000400080004000200FF00FF000000FF0088
:100762001800240042008100000000000000FF0089
:10077200020004000800040002000200FF00000062
:10078200FF00180024004200810000000000000069
:10079200FF00020004000800040004000200FF0041
:1007A2000000FF0018002400420081000000000049
:1007B2000000FF000200040008000800040002001C
:1007C200FF000000FF00180024004200810000002A
:1007D20000000000FF000200040004000800040002
:1007E2000200FF000000FF00180024004200810008
:1007F200000000000000FF000200020004000800E8
:1008020004000200FF000000FF0018002400420064
:100812008100000000000000FF00FF000200040051
:10082200080004000200FF000000FF00180024007E
:1008320042008100000000000000000103070F1FBA
:100842003F7FFF00010204081020408001002D4E6E
:10085200414E00494E46000008008301460801004F
:100862008E014E080000F894EE27ECBBF1E0FBBFCE
:10087200EBBFE5BF8DE0A2E0BB27ED938A95E9F7D8
:1008820080E094E0A0E6ED930197E9F7EAE5F8E06D
:1008920085919591009761F0A591B591059015907C
:1008A200BF01F00105900D920197E1F7FB01F0CF36
:1008B200EFE5EDBFE4E0EEBFC0E6D1E00C946104E9
:1008C200F8D072D003D081D0FFCFFFCF2697E0E0DF
:1008D200E883E983EA83EB83EC83ED830E9493113F
:1008E20000E010E028E030E040E050E0EE83EF83EB
:1008F200AE81BF8150970CF053C0E0E0E887E987F2
:10090200A885B985A43FE1E0BE0794F5E0E8E2BB23
:10091200EA85FB85ACE3B6E0EE0FFF1FEA0FFB1F93
:100922000E94C20DA1E0B0E00E94380FE0E0E2BBFD
:10093200EA85FB85EE0FFF1FE45BF94F0E94C20DB3
:100942004F5F5F4FEA85FB853196EA87FB87AA8571
:10095200BB852A173B0711F40A871B87A1E0B0E089
:100962000E94380FE885F9853196E887F987C8CF64
:10097200E0E0F2E0E217F30749F400E010E028E0DB
:1009820030E0EA87EB8740E050E004C0005F1F4F91
:10099200205F3F4FEE81FF813196EE83FF83A8CF28
:1009A2000E949A112C9608950E94CF0DE0E0EA93DE
:1009B200EA93E4E5F0E0FA93EA93A0E00E942809C2
:1009C200A8EBBBE00E94380F089528970E9493116C
:1009D20000E010E020E030E040E050E00E94CF0D67
:1009E200ACE2B1E00E94380F0F5F1F4FECE3F0E082
:1009F200E017F10721F42F5F3F4F00E010E0ECE336
:100A0200F0E0E217F30721F44F5F5F4F20E030E0A0
:100A1200ECE0F0E0E417F50711F440E050E03BD1E0
:100A22000E94E30DAEE10E94580CE3E0E0936801FE
:100A3200E4E0E09369010E94E30DA2E00E94580CF9
:100A42000E94E80DF8010E94EF0D0E94F40D0E9431
:100A5200FE0D0E94050EF8010E940C0E0E94FE0D72
:100A62000E94170E0E941E0EF9010E94EF0D0E94B5
:100A7200F40D0E94270E0E94050EF9010E940C0E31
:100A82000E94270E0E94170E0E941E0EFA010E945B
:100A9200EF0D0E94F40D0E942E0E0E94050EFA0127
:100AA2000E940C0E0E942E0E0E94170E0E941E0E15
:100AB20097CFEFEFEABBE0E0EBBBEFEFE7BBE0E0A5
:100AC200E8BBEFEFE4BBE0E0E5BBEFEFE1BBE0E06A
:100AD200E2BB08950000909A0000089590989498BF
:100AE200959808951A93F6DF13B39098E12F199110
:100AF2000895AA931A93E0E0E4BB919A9298E9814F
:100B0200EF5F1E2F10FF02C0949A01C0949811FF4C
:100B120002C0959A01C09598E5DFE078E9F718815F
:100B22001CC1AA93A981E5DF0E94350E16C1E0918E
:100B32008C01EA93E0918B01EF73E064AE2FF1DF59
:100B4200E0918C01EA93E0918D01E86BAE2FE9DF31
:100B52000895AA93E981E0938B01E295EF70E695FF
:100B6200E695E0938C01E881E0938D01E0DFF5C02A
:100B7200A0918B01AF5FA0938B01A03818F0E0E049
:100B8200E0938B01E0918B01EF7331F4E0918B01E3
:100B9200EA93A0918D01DDDF0895AA93A0918C01C3
:100BA200A8DF929A0E94350E21960895A0918C0199
:100BB200A0DFE0E0E4BB919A929A94DF0895AA93B1
:100BC200E981EA93E9810E943E0EF0DFB0DFEEDFB9
:100BD200C4C0BA93AA931A93889A899A8A9A8B9ACA
:100BE200939A8C9A8D9A7ADF9398A4E6B0E00E9449
:100BF200380F939A10E0123040F41A93AFE391DF6A
:100C02001A931395A0EC8DDFF6CFE1E0E09360013B
:100C1200E0E0E0936101E981FA813097A9F0A981CE
:100C2200BA810E944811E0936401F0936501129623
:100C32000E944811E0937901F0937A01A981BA8167
:100C420014960E9448110AC0E0E0F0E0E0936401CB
:100C5200F0936501E0937901F0937A01E0937B01CF
:100C6200F0937C01E1E0E0936601E09367010E946A
:100C7200E80DE1E0E0937001E1E7F1E0FA93EA9335
:100C8200EFEFEA93A8E0B0E00E94410D04D0E1E06A
:100C92001881239608950E94951100E030E0E091BA
:100CA2006101E03009F00FEF383078F4E0E0EA93C8
:100CB200A32F3F5F4EDF10E0A12F1F5FA03820F46B
:100CC200A02F0E94440EF8CFEFCFE0E0EA93A0E01D
:100CD20040DFE0E0EA93A0E006D30E949C11249654
:100CE2000895AA931A930A93AC81A03818F4AB81A1
:100CF200A03408F016C0EC81EA93AC8160DF1E2FAD
:100D020016DFEB81E770A1E00E94F7100E2FEA8157
:100D1200E03011F0102B03C0E02FE0951E23A12F2D
:100D22003CDF1981088125960895AA93A981A038EC
:100D320018F4A881A03410F0E0E00FC0E981EA9332
:100D4200A9813DDF1E2EE881E770A1E00E94F71025
:100D5200E12111F0E1E001C0E0E022960895AA93BA
:100D62001A93ED81EA93AD812ADF1E2FE0DEE9813D
:100D7200E73011F0E83039F4EB81EA93AA810E945E
:100D82005C0DEB8308C0E33021F4EB81E095EB834B
:100D920002C0E03021F4EA81E0951E2302C0E23075
:100DA20029F4EA81AB81EA231E2B0EC0E13029F43B
:100DB200EA81AB81EA231E2707C0E43029F4EA81E5
:100DC200E095AB81EA2B1E23A12F0E94440E1881CD
:100DD20026960895AA9323970E949311A889A03872
:100DE20048F4AF85A03430F4AE85A03019F0AD855B
:100DF200A03009F4C8C1EE85E887A889BB27EE8533
:100E0200F0E0AE0FBF1FA138E0E0BE0720F0A889D6
:100E1200E0E8EA1BEE872D85AF85BB27ED85F0E084
:100E2200AE0FBF1FA134E0E0BE0720F0AF85E0E4C3
:100E3200EA1BED87A985A63009F05BC0EC85E1309D
:100E420009F4A1C1E33039F4E0917B01F0917C0116
:100E5200309709F498C10885ED85E695E695E69503
:100E62003E2FE22FE77019F4AD852A17E9F0A02F83
:100E7200BB27E32FF0E00E941611AA85BB850E94D2
:100E8200480E269526952695532F5F935F5FE22F96
:100E9200AF91EA1748F0102FE12F1150E03019F00E
:100EA2000E944D0EF9CFF1CFAE850A1711F1EE85F2
:100EB200AA85BB85F0E00E94480EED85E77009F037
:100EC2003F5F20E02F932F5FE32FAF91AE1788F49F
:100ED2001E851F931F5FE02FAF91AE1718F40E947B
:100EE2004D0EF7CFEE85AE81BF81F0E00E94480E35
:100EF200E9CFEF85E7703E2FED85E03009F443C17D
:100F0200EA85FB85EE83FF8310E00889303009F023
:100F120065C0AD85A83008F45CC0E985E03011F009
:100F2200E33009F402C0E73009F402C0E83009F402
:100F320002C0E63009F402C0E93009F402C0EA3026
:100F420021F40A93E8890E943E0E1F931F5FEE85EB
:100F5200AF91AE17B8F5A985A63061F427DEE7DDBB
:100F62000E945A0EFA93EA9321DEAE2F0E94A30D3D
:100F7200FFDD27C0E985E93011F450E00EC0EA3008
:100F820011F45FEF0AC00E945A0E0E94630E5E2F98
:100F9200E985E73011F0E83021F40E94690E5E2FF6
:100FA20006C0E33011F4509502C0E03021F4A52FC1
:100FB2000E94440E06C00E946D0EEFEFEA93AD85CB
:100FC200CEDEC3CFEF85E85FEF87ED85E850ED8792
:100FD200D1C05D8520E0E0E0ED877AC0E32FAD85EA
:100FE200AE0FA93020F42D85E0E0ED8703C0E8E0E4
:100FF200E31B2E2F3A93A22F0E94510D4E2FE9850B
:10100200E630F1F41F931F5FEE85AF91AE17B8F48F
:101012000E94730EAE2FE32F0E94FF100E947A0EE1
:10102200E32FA42F0E94FF10E095E1215E2B0E9486
:101032005A0EFA93EA93A52F0E94A30DE3CF2CC078
:10104200E93011F450E003C0EA30A9F45FEF0E94E6
:10105200690EAE2FE32F0E94F7105E2F1F931F5FC2
:10106200EE85AF91AE1730F40E946D0E4A93A0E068
:1010720076DEF4CF11C01F931F5FEE85AF91AE17DE
:1010820058F40E94850EAE2FE32F0E94F710EA93C8
:101092004A93AD8564DEEFCFED85E03009F473C08D
:1010A200AD85A83028F4ED85E21B5E2FE0E003C099
:1010B200532FED85E850ED8710E0EF85E85FEF876D
:1010C200E8E0E31B2E2F0889EA85FB85EE83FF8388
:1010D200E52FF0E0E45CF74F4491E985E630F1F466
:1010E2001F931F5FEE85AF91AE17B8F40E94730E87
:1010F200AE2FE22F0E94F7100E947A0EE22FA42F49
:101102000E94F710E095E1215E2B0E945A0EFA939D
:10111200EA93A52F0E94A30DE3CF2CC0E93011F46E
:1011220050E003C0EA30A9F45FEF0E94690EAE2FCF
:10113200E22F0E94FF105E2F1F931F5FEE85AF917B
:10114200AE1730F40E946D0E4A93A0E008DEF4CF91
:1011520011C01F931F5FEE85AF91AE1758F40E9426
:10116200850EAE2FE22F0E94FF10EA934A93AD85BF
:10117200F6DDEFCFE885AA85BB85F0E0EA0FFB1F1D
:10118200EA87FB87B9CE0E949A11619608950E9460
:10119200920E24F0E0E0F0E00C945A0DA881B9819F
:1011A200A038E0E0BE0724F0EFE7F0E00C945A0D1F
:1011B200E881F9810C945A0D0E94920E24F0E0E02D
:1011C200F0E00C945A0DA881B981A034E0E0BE078A
:1011D20024F0EFE3F0E00C945A0DE881F9810C94CD
:1011E2005A0DAA93E981EA93E981EA93A0916001F9
:1011F20078DD0C945A0DAA931A93AA81A03818F498
:10120200A981A03438F0E0E0F0E060E070E01881FD
:101212000C94A10DE981E7701E2FE981E695E69510
:10122200E695E983103011F0EF5FE983AA81BB27CD
:1012320088279927E981FF27662777270E941E11B1
:10124200EC5FFF4F6F4F7F4F18810C94A10DAA9353
:101252000E949511AC81A53018F5ED81FE810591B2
:101262000E94990E15910E94990E25910E94990E45
:101272003591ED83FE83E885EA93E885EA930A9344
:101282002A93E1E0EA93EA85FB85FA93EA93AB8538
:10129200A1DD0A93A22FAFDF0E949C110C94330DA3
:1012A200E0E0F0E060E070E00E949C110C94330DED
:1012B200AA93EA81EA93EA81EA93E0916901AA8119
:1012C200EA2319F0E091600102C0E0916101AE2FC2
:1012D20008DDE881EE0FE883E03011F4E1E0E88315
:1012E200E8810C94A10DAA93A981BB2750DFE0935A
:1012F2006201A881BB2760DFE09363010C945A0D61
:10130200AA932B970E949311AC89BB2740DFEC8BE9
:10131200AA89BB273CDFEA8BAB89BB274DDFEB8B6E
:10132200A989BB2749DFE98BEA89E0936201E98950
:10133200E0936301E1E0E887E989AB89EA1771F597
:101342001C89AA891A1731F41A93EC89EA93A1E04D
:10135200AFDFC8C0AA891A1730F4EA89E11B0E2F41
:1013620041E050E006C0AA89E12FEA1B0E2F4FEFA1
:101372005FEF3B89E0E0EE830E949C0E38F41A9303
:101382003A933395AA8594DFEF83F6CFEF81E8870E
:10139200140FE02F0150E03061F7A4C0EA89AC8954
:1013A200EA1739F53B89A9893A1730F4E989E31B31
:1013B2002E2FE1E0F0E006C0A989E32FEA1B2E2FD1
:1013C200EFEFFFEFED87FE871C89E0E0EE830E94DE
:1013D2009C0E30F41A9313950E94A40EEF83F7CF5C
:1013E200EF81E887ED853E0FE22F2150E03061F773
:1013F20079C0E0E0EE830E949C0E08F073C01C8965
:101402003B89E1E02E2F0E2FAA89BB27EC89F0E061
:10141200AE1BBF0BAD0155232AF40FEFFA010E9458
:10142200EB10AF01FA01EE0FFF1FEF87F88BA989CE
:10143200BB27EB89F0E0AE1BBF0BAD87BE87AE8545
:10144200AA233AF42FEFED85FE850E94EB10ED877B
:10145200FE87ED85FE85EE0FFF1FEB87FC871A9353
:101462003A93A1E025DFE887E0E0E987EA87AD85E6
:10147200BE854A175B07BCF0100FEB85FC850E9406
:10148200A80EA985BA854A175B072CF4320FAF85DF
:10149200B8890E94AF0E1A930E94A40EE887EA89C7
:1014A200E11751F718C0320FEF85F8890E94A80E94
:1014B200ED85FE85A985BA85EA17FB072CF4100F86
:1014C200AB85BC850E94AF0E1A930E94A40EE887DA
:1014D200E989E31741F7EB89EF5FEB8BE989EF5F6E
:1014E200E98B89CF0E949A1165960895BA93AA93BF
:1014F20023970E949311ED85E887E0916801EF83BD
:10150200E0916001EE83AA89BB27EF850E94B60EA7
:10151200E8890E94BD0EE8890E94C40E71F0E88538
:10152200E078F1F4AD85BE85EAE5F0E00E94CC0EEC
:101532001CF00E94D50E0CF413C0332312F00E944B
:10154200DA0EAF81A23020F02230E0E03E070CF448
:1015520007C00E94DE0E21F40A93A22FA15041DEA1
:10156200E885E878E83891F0E885E078C9F4AD8557
:10157200BE85A25FBE4F0E94E70E3CF0AD85BE85E0
:10158200A25FBE4F0E94EC0E0CF40AC00E94F10E44
:1015920038F00E94F80E21F40A93A42FAF5F21DEE7
:1015A200AA89BB27EF85F0E0AE1BBF0B8D0111238B
:1015B2000AF445C0E885E278E23891F0E885E078FF
:1015C20011F5AD85BE85A65ABF4F0E94E70E3CF0CD
:1015D200AD85BE85A65ABF4F0E94EC0E0CF413C017
:1015E200332312F00E94DA0EAF81A23020F02230B3
:1015F200E0E03E070CF407C00E94DE0E21F40A93DD
:10160200A22FA150EEDDE885E478E43871F0E88598
:10161200E078A9F4AD85BE85EEE0F1E00E94CC0E43
:101622001CF00E94D50E0CF40AC00E94F10E38F094
:101632000E94F80E21F40A93A42FAF5FD2DDAA898B
:10164200BB27E8890E94B60EEF850E94BD0EEF858A
:101652000E94C40E81F0E885E078F1F4EB85FC8508
:10166200AD85BE85AE17BF072CF0E985FA85EA176E
:10167200FB070CF411C033237AF00E94DA0EAF811B
:10168200A23050F0E02FEE5F0E94010F29F4E02F0C
:10169200EF5FEA93A22FA5DDE885E878E83871F0DC
:1016A200E885E078C1F4AD85BE85E8E6F1E00E9408
:1016B200CC0E1CF00E94D50E0CF40DC00E94F10E4F
:1016C20050F0E02FEE5F0E94090F29F4E02FEF5F48
:1016D200EA93A42F86DDAA89BB27E889F0E0AE1B36
:1016E200BF0B8D0111230AF450C0E885E278E2387D
:1016F20071F0E885E07809F5AD85BE85E4EBF0E0B0
:101702000E94CC0E1CF00E94D50E0CF416C033239E
:10171200A2F00E94DA0EAF81A23020F00230E0E0A7
:101722001E070CF40AC0E02FE2500E94010F29F4B8
:10173200E02FE150EA93A22F54DDE885E478E43803
:1017420091F0E885E07809F5AD85BE85AC54BF4FD0
:101752000E94E70E3CF0AD85BE85AC54BF4F0E949F
:10176200EC0E0CF412C00E94F10E20F00230E0E008
:101772001E070CF40AC0E02FE2500E94090F29F460
:10178200E02FE150EA93A42F2CDD0E949A11639678
:101792000895AA930E949511AF81BB27ED81F0E0D5
:1017A200AE1BBF0BF4DC1E2FAF81BB27ED81F0E037
:1017B200AE0FBF1FECDC0E2FAE81BB27EC81F0E039
:1017C200AE1BBF0BF9DC3E2FAE81BB27EC81F0E0F4
:1017D200AE0FBF1FF1DC2E2F1A933A930A93A32F59
:1017E2008FDD1A932A930A93A22F8ADD0E949C11FD
:1017F20028960895AA930E949311A985A03818F4F7
:10180200A885A03408F04FC050916801E52F5150CF
:10181200E03009F448C0EF81E03009F444C0EF81C0
:10182200E150EF83EF5F0E2FF0E0A5E0B0E0AE1BDA
:10183200BF0BFD010E9407110E940C119F0110E0D5
:10184200AE81A03459F40E94110F1A93A02FA1DF88
:101852000E94110F0A93A12F9CDF0FC00E94110F4B
:101862001A930A93EA85F0E0FA93EA93E0E0F0E053
:10187200FA93EA93A0E0B0E039DE1F5F33231AF453
:10188200E12FF0E008C00150A12FBB27E02FF0E0CC
:10189200AE1BBF0BFD01EE0FFF1F31962E0F3F1F38
:1018A200011770F6B3CF0E949A112A960895AA934F
:1018B200EA81EA93EA81EA93EA81EA93AFE89ADF5E
:1018C2000C94A10D0E9460117B816A81F981E881EB
:1018D20077FB770F67FD7160972F9E5781F078F045
:1018E200983190F4AA27BB27882708948795B79543
:1018F200A7959A95D1F7EA23FB23682305C0E894BC
:101902007727EE27FF2766276F77769508F46068BA
:1019120077F9A991B99189919991EA17FB0768071B
:10192200790797FB08950E94160F0E94630C0E948C
:101932005B1121F40E9451110C94C00DDEF70E943C
:101942005111A0E0B0E080E89FE30E94E10F17C1CF
:101952000E94601124971A9310E00E941B0FE3E883
:10196200F9EF62E27EE30E9438100E94200FDBDF73
:101972000E941B0F0E9465110E94E10F0E94200F1E
:10198200E0E0F0E060E07FE30E94CB1009F008F4B1
:1019920009C00E94250FA0E0B0E080E09FE30E9412
:1019A2002A0F11E00E941B0FE0E0F0E060E87EE306
:1019B2000E94CB1009F008F408C00E941B0FE0E05F
:1019C200F0E060E07FE30E942A0F103041F00E94B5
:1019D200250F0E94420FED83FE836F8378870E945A
:1019E200250F0E941B0F0E943810E983FA836B8334
:1019F2007C83A1EBB4EC86E292E40E943810DF0112
:101A0200CB01EDE1F5EE6DE272E40E9465110E94F8
:101A1200E10F0E94310FACE4B3E584E091E40E944F
:101A2200E80F0E941B0F0E9438107F936F93FF9361
:101A3200EF93E981FA816B817C81A1E1BDEE8EEDAC
:101A42009FE30E94E80F0E94310FAEE5BBE788EAF0
:101A52009FE30E94E80FAF91BF918F919F910E94E7
:101A620086101881299608950E94160FEBEDFFE06B
:101A720069EC7FE30E94E10FDF01CB0169DF7FC0E8
:101A8200BA93AA93B981A881109631F0FC81EB81B7
:101A92006A8161931197E9F7EB81FC81259608959C
:101AA200AA93E881F0E0E45CF74FA491E9810E94F7
:101AB200F71022960895AA931A93E981E73011F05C
:101AC200EA3019F41091600109C0E93019F410915B
:101AD200610104C0E830A1F410917001E09161014C
:101AE200E03049F0103019F0EFEF188129C0EA8197
:101AF200E095188125C0103019F4E0E0188120C06B
:101B0200EA8118811DC0BA93AA93EA81E13021F4D7
:101B1200E881F981E49114C0E23029F4A881B98105
:101B22000E9472110DC0E33041F4A881B981E091A5
:101B32007901F0917A01099503C0A881B981EC91EC
:101B420023960895AA93EB81E03029F4E881A981D4
:101B5200BA81EC9314C0E23031F4E881A981BA81F0
:101B62000E947E110CC0E33051F4E981FA81FA93AC
:101B7200EA93AA81E0917B01F0917C010995249678
:101B82000895E491E095E8BBFA01A7E0B0E00E9475
:101B92003E11ED57FE4FE081EBBB0895E8E5F4E01E
:101BA200E0937D01F0937E01E0E0F0E0E0937F01BD
:101BB200F0938001E0938101F0938201ADE7B1E0FF
:101BC2000C94EA05EFE3EA93EFE1EA930895E1E08A
:101BD200E0936801EFEFE0936901089566277727A4
:101BE2000E94AE0F0895A0E5B7E786ED9DE30E943F
:101BF2003810DF01CB010C94A90CA0E0B0E088EC16
:101C020091E40E9438100895DE011A960E94750F21
:101C12000E944C110895E2DFA0E5B7E786ED9DEB47
:101C22000E943810DF01CB010C94350DDE011696AF
:101C32000E94750F0E944C11C5CFEC85E15CEA93BE
:101C4200A985EFE1EA1BAE2F0C948109A0E0B0E078
:101C520080EA91E40E9438100895A0E0B0E080E7A5
:101C620091E40E94381008959198EFEFE4BBE88167
:101C7200E5BB0E946B050C946F05E695E695E6952B
:101C8200AE2F0C94AA050E94CE050C94B905EA0F5A
:101C9200FB1FEE83FF830895EC85EA93EF81F885BD
:101CA2003196EF83F8873197FA93EA93A0E00C9488
:101CB200A30DEC85EA93EF81F8853196EF83F887DF
:101CC2003197089566277727DF01CB010C94840DA5
:101CD2005A93AA850C945C0D0A930395E889EA93BA
:101CE2005A9308950A930395A8890E94E005E42374
:101CF20008955E2FEC85EA93AF81B88588279927EE
:101D02000E94840D1E2E08950A930395E889EA9392
:101D1200EE85EA93E985FA853196E987FA87319764
:101D2200D1CFBA93AA93A881B9810E948F11089545
:101D3200ED83FE830895AE81AF5FAE83A150E09143
:101D42006801AE1708953A93AA850C945909A9859A
:101D5200BA85EA0FFB1FE987FA870895E985FA85B4
:101D6200EA1BFB0BE987FA870895F0E0EA0FFB1FF5
:101D72008F01A989BB270895F0E0AE1BBF0B9D011F
:101D8200A989BB270895F0E0EA0FFB1FAF01E885A0
:101D9200E178E1380895EA1BFB0B0F01DF01EB85C7
:101DA200FC85AE17BF070895E985FA85E015F105B0
:101DB20008950A93A22F0C94F2080A93A22FA2501C
:101DC2000E949606AE2FEE81EA170895EB85FC85F8
:101DD200AE17BF070895E985FA85EA17FB0708954C
:101DE2000A93A42F0E94F208AF81A23008950A93A9
:101DF200A42FAE5F0E949606AE2FEE81EA170895D9
:101E0200EA93A22F0E949606AE2FEE81EA1708955A
:101E1200EA93A42F0E949606AE2FEE81EA17089548
:101E2200E985EA93E985EA9308950E9460110E9488
:101E320056110895AD81BE818F8198850895ED83F5
:101E4200FE836F837887F6CFED81FE816F8178857F
:101E520008950E94E10FED83FE836F8378870895D2
:101E6200A981BA818B819C810E94381008951096B5
:101E720039F080ED97E00197F1F7A8951197C9F72E
:101E8200089530976040704009F0705808955523C6
:101E920042F4503811F4E0FF04C03196691F791FF3
:101EA2006BF050E8572711F45F93CFC05F3F31F0DA
:101EB200660F000C57956795752F08955F93002064
:101EC2000AF0CFC0C8C050E8192E1522880F991FFA
:101ED2009527550F879550E8072E0522660F771F25
:101EE2007527550F67950895689401C0E8945F932C
:101EF200F2DF703818F07F3F08F4A7C056E1571B95
:101F0200AAF4519558300EF4593030F0EFEFFFEF4C
:101F12006FEF7FE777F91AC077275523B9F0EE0FF5
:101F2200FF1F661F771F5A95D1F710C077275830C9
:101F320028F0EF2FF62F672F5850F9CF552331F0A5
:101F420076956795F795E7955A95D1F700200AF4AB
:101F520045D15F910895689401C0E894309760403C
:101F62007040B1F0002426F0772312F4009436D1A9
:101F7200172E7EE1112032F07A95EE0FFF1F661FB9
:101F8200111CF9CFEF2FF62F612D5F938ADF5F913E
:101F920008954F93AF01FD01DA01AB01BC01CA0103
:101FA200402D012C142E4F910895EA0FFB1F681F3C
:101FB2000895E095F0956095EF5FFF4F6F4F08959C
:101FC2005F9381DF903871F150E8152604C05F936A
:101FD2007ADF903839F1703821F1572F591B2BF1E4
:101FE20012F4D7DFFACF583118F0AA27BB27882777
:101FF200583028F0AB2FB82F88275850F9CF5523E7
:1020020029F08695B795A7955A95D9F7502D512560
:1020120072F0CBDF38F46795F795E795739513F473
:1020220020C0B7DF3EDF5F910895D8F7FBCFEA1BF0
:10203200FB0B680B51F010F40094BBDF662392F3A4
:10204200EE0FFF1F661F7A95CBF7EE27FF27662755
:1020520077275F910895EFEFFFEF6FE77FEF5F91D3
:102062000895EFEFFFEF6FE77FE75F9108955F93CA
:102072002ADF703851F3903841F301240894791F14
:1020820023F41CF300203AF3ECCF0F921F932F930B
:102092003F934F93112722279927689FA0018F9F73
:1020A200302D410D591F6B9F300D411D591F8E9FC1
:1020B20027D0BF9F25D06A9F23D0BE9F1DD0AF9F40
:1020C2001BD0AE9F110D291F391F491F591FE32F26
:1020D200F42F652F522F4F913F912F911F910F9007
:1020E20066232AF0550FEE1FFF1F661F02C073956D
:1020F2004BF2CDDE5F910895100D211D391F02C0F4
:10210200200D311D491F591F08955F93DCDE703881
:1021120021F411200AF49FCFA4CF903809F495CF6F
:1021220001240894970B1BF4D4F30020F3CF792FEA
:102132001F932F933F934F93112411272227332765
:102142004427552790E2AE17BF078607410730F0B4
:10215200AE1BBF0B860B410B089401C08894551F20
:10216200221F331F111CAA1FBB1F881F441F9A95D1
:1021720051F7F901612D4F913F912F911F916623E4
:1021820032F0550FEE1FFF1F661F7A9543F27FDE76
:102192005F91089599239AF0772342F0971748F0B8
:1021A20029F4AE17BF07860720F031F0989488947F
:1021B200089598940894089518948894089577231C
:1021C200C2F7971798F3A9F7EA17FB07680788F38E
:1021D20099F3ECCFF195E195F0400895F095609573
:1021E2007095E195FF4F6F4F7F4F0895EE230E2EAE
:1021F200EA2F19F0EE0F0A94E9F70895EE230E2E56
:10220200EA2F19F0E6950A94E9F70895EE0FFF1FF9
:10221200EE0FFF1F0895F595E795F595E79508955B
:102222006F2F660F660B762F0895FA9FF02DEB9FA6
:10223200F00DEA9FE02DF10D08957A9F702D6B9FAE
:10224200700DF89F700DE99F700D6A9F602D710DE2
:10225200FB9F600D711DE89F600D711D8827FA9F1D
:10226200F02D610D781FEB9FF00D611D781FEA9F25
:10227200E02DF10D681F781F0895E894F7FF02C062
:10228200A9DF6894EA23FB230EF4A4DF0895ED91FD
:10229200FC9111970895ED93FD936D937C930895AE
:1022A200E881F9816A817B810895A881B9818A8157
:1022B2009B810895E883F9836A837B8308959A93C7
:1022C2008A93BA93AA930895182E862F612D192EF8
:1022D200972F712D1B2EBF2FF12D1A2EAE2FE12D10
:1022E2000895E199FECFFF93FFB7F894AEBBBFBB51
:1022F200E09AEDB3FFBFFF910895E19B02C0A8955C
:10230200FCCF9FB7F894AEBBBFBBE09A8DB3E81782
:1023120019F0EDBBE29AE19A9FBF089500240A16D4
:102322000B0608955A934A933A932A931A930A935F
:1023320008955D814C813B812A811981088108952C
:00000001FF
