:040000000C942F002D
:100004000C9400000C9400000C9400000C9400006C
:100014000C9400000C9400000C9400000C9400005C
:100024000C9400000C9400000C9400000C9400004C
:100034000C9400000C9400000C9400000C9400003C
:100044000C9400000C9400000C9400000C9400002C
:100054003F065B4F666D7D077F6FF894EE27ECBB20
:10006400F1E0FBBFEBBFE5BF8DE0A2E0BB27ED9362
:100074008A95E9F780E094E0A0E6ED930197E9F72B
:10008400EFE5EDBFE4E0EEBFC0E6D1E00C944A003A
:10009400E5E0F0E0FA93EA93A0E9B1E059D078D032
:1000A400ECEFF8E0FA93EA93E4E0EA93A3E07AD081
:1000B400F6CFFFCFAA931A93E981F0E0E130A0E0F4
:1000C400FA0721F4E0E0EABB19B317C0E230A0E07C
:1000D400FA0721F4E0E0E7BB16B30FC0E330A0E079
:1000E400FA0721F4E0E0E4BB13B307C0E430A0E076
:1000F400FA0719F4E0E0E1BB10B3E12F188126C040
:10010400AA93E981F0E0E130A0E0FA0729F4EFEFE7
:10011400EABBE881EBBB1AC0E230A0E0FA0729F49D
:10012400EFEFE7BBE881E8BB11C0E330A0E0FA07DA
:1001340029F4EFEFE4BBE881E5BB08C0E430A0E0BC
:10014400FA0721F4EFEFE1BBE881E2BB22960895C0
:10015400BA93AA931A930A9300E010E0EC81FD810C
:100164000E171F078CF4E2E076D0AA81BB810E94AF
:100174004101E2E0EA93A0E0C3DFAA81BB810E94CF
:1001840041010F5F1F4FEACF198108812696089518
:100194001A93A1E08FDF1E2FE2E0EA93A12FB0DFD4
:1001A40019910895AA932A978AE0A0E0B0E0E4E5C3
:1001B400F0E00E9483011A930A9300E010E00530F6
:1001C400E0E01E070CF043C02497AA89BB89E8EE3F
:1001D400F3E00E946201EB83AA89BB89E8EEF3E0B5
:1001E4000E946701DF01E4E6F0E00E946201EA8315
:1001F400AA89BB89E4E6F0E00E946701DF01EAE036
:10020400F0E00E946201E983AA89BB89EAE0F0E098
:100214000E946701E883E989EA93AEEF1FD0EC817D
:1002240021D0E989EA93ADEF19D0EB811BD0E9899C
:10023400EA93ABEF13D0EA8115D0E989EA93A7EFEB
:100244000DD0E9810FD024960F5F1F4FB8CF1981CD
:10025400088160960895EA93AFEF52CF51DFE889A1
:10026400EA930895F0E0DE011796AE0FBF1FAC913C
:1002740047DFAAE0B0E00E944101E989ECCF109683
:1002840039F080ED97E00197F1F7A8951197C9F738
:100294000895F195E195F04008950024112490E12A
:1002A400AA0FBB1F001C111C0E1A1F0A18F40E0EF5
:1002B4001F1E01C0A1609A9599F7FD01D001089510
:1002C40012D0EBDF0EF4E5DF0895E894B7FF04C025
:1002D400A095B09511966894F7FDDBDFDEDFFD0194
:1002E4000EF4D7DF0895E894F7FF02C0D2DF6894D4
:1002F400B7FF06C0A095B095119600F8039400FAD4
:100304000895AC0FBD1F05900D928A95E1F70895ED
:00000001FF
