:100000000C9455000C9400000C9400000C9400001B
:100010000C94BF000C94BB000C9400000C940000E6
:100020000C94B5000C9400000C9400000C9400009B
:100030000C9400000C9400000C9400000C94000040
:100040000C9400000C9400000C9400000C94000030
:100050000C9400001027E80364000A00010000105F
:100060000001100001000100010025640020202093
:1000700020202020200052504D0044433A20256487
:10008000000080C001007601660001007701680071
:10009000090060016D0004006901760009006D012E
:1000A0006D000200850182000000F894EE27ECBB91
:1000B000F1E0FBBFEBBFE5BF8DE0A2E0BB27ED9316
:1000C0008A95E9F780E094E0A0E6ED930197E9F7DF
:1000D000E4E8F0E085919591009761F0A591B591E4
:1000E00005901590BF01F00105900D920197E1F781
:1000F000FB01F0CFEFE5EDBFE4E0EEBFC0E6D1E0FD
:100100000C948200B7D1E1E0E0937601E0937701AF
:10011000E0E0E0937801E0937901E0937A01E093E5
:100120007B01E0937C01E0937D01E0937E01E0930D
:100130007F01E0938001E0938101E0938201E093ED
:100140008301E0938401AAE00E94C204AEE10E9410
:10015000C204A2E30E94C204A6E40E94C204AAE56B
:100160000E94C2042FD0FFCFFFCFEA93E1E0E093DB
:100170007801E99118950E94C80406D105C00E9433
:10018000C804E2EBE4BD48D0E991EFBFF991E991F1
:10019000B991A9919991899179916991F990199061
:1001A00009901895AA93E0E0E2BFE881AFEFEA9FDB
:1001B000F001F296DF01E4E6F0E00E947D05ECBF7D
:1001C0000C94FF021A9319B3E4E6E19FF001DF01FA
:1001D000EFEFF0E00E947D051E2FA12FE3DF1991C4
:1001E0000895AA93EB81E03011F4C49801C0C49A39
:1001F000EA81E03011F4C59801C0C59AE981E03088
:1002000011F4C69801C0C69AE881E03011F4C7988D
:1002100001C0C79A2496089560970E94D604A53617
:10022000E0E0BE0788F5A0917601A13059F5A091D4
:100230007701A13031F40E94DB040E94E0040E94A7
:10024000E504A0917701A23031F4E0E0EA930E9446
:10025000DB040E94EB04A0917701A33031F40E94EB
:10026000EF04E1E0EA930E94EB04A0917701A4304F
:1002700049F40E94EF04E0E0EA93A1E0B2DFE1E09C
:10028000E09377010E94F3040E94D604A436E0E0D4
:10029000BE0749F40E94EF040E94E004E0E00E94DF
:1002A000FB040E94F3040E94D604A536E0E0BE07DA
:1002B00030F00E94D604A93CE0E0BE0708F031C04F
:1002C000E0917601E03059F5A0917701A13041F439
:1002D0000E94EF04E0E0EA93A1E083DF0E94E504DE
:1002E000A0917701A23031F40E94EF04E1E0EA939B
:1002F0000E94EB04A0917701A33031F4E0E0EA938F
:100300000E94DB040E94EB04A0917701A43039F431
:100310000E94DB040E94E004E1E0E09377010E9488
:10032000F3040E94D604A93CE0E0BE0740F0E0E000
:10033000E0938101E0938201E1E00E94FB04ECED97
:10034000F5E0E0938301F0938401FE01FA93EA93D0
:10035000EAE6F0E0FA93EA93E0918301F0918401F8
:100360000E940105A0E0E0D0A0E6B1E00BD1E0E002
:10037000EA93A0E00E940C05E6E0EA93A0E0D4D066
:10038000A9E6B1E0FFD074C06097A0917801A130D8
:1003900099F4E6B5F0E00E941105E7B5FE2FE0E024
:1003A000A0917901B0917A01EA0FFB1F0E9411051B
:1003B000E0E0E09378015CC0E6B5F0E0E0937B011B
:1003C000F0937C01E7B5FE2FE0E0A0917B01B091B6
:1003D0007C01EA0FFB1FE0937B01F0937C01A0916D
:1003E0007901B0917A01EA1BFB0B66277727A0E819
:1003F000BFE482E190E00E94A705E0937D01F093C5
:100400007E01E0917B01F0917C010E941105A09199
:100410007F01B0918001E0917D01F0917E01EA1BA6
:10042000FB0BDF01359728F4FD01EC3FAFEFFA0736
:10043000F8F4E0917D01F0917E01E0937F01F0936B
:100440008001FE01FA93EA93EAE7F0E0FA93EA9377
:10045000E0917F01F09180010E940105A1E064D04C
:10046000ADE6B1E08FD0E0E0EA93A1E00E940C0598
:1004700060960895E0E0EABBEBBBEFEFE7BBE0E09E
:10048000E8BBEFEFE4BBE0E0E5BBE0E3E1BBE0E0CD
:10049000E2BBE2E6E3BFE0E0E2BFE3E3ECBFE0E0C3
:1004A000EFBDE2E0EEBDE0E0EDBDECBDE7BDE6BDD9
:1004B000EBBDEABDE9BDE8BDE2BDE7E0E5BDE2EBCD
:1004C000E4BDE0E0E3BDE4E6E9BFE0E0E5BFE4BFB2
:1004D000EAB9E0E8E8B9E0E0E0BFE6B9EDB9E6BFC7
:1004E000A0E161D078940895AA93E5B3EF70AE2FA0
:1004F000E881E07FEA2BE5BB8DE08A95F1F7AA9AC7
:100500008DE08A95F1F7AA988DE08A95F1F777C08A
:10051000AA93A881E9DFE881E295E883A881E4DF76
:1005200085E88A95F1F76BC0AA93E881F0E0EB5774
:10053000FE4FE081A981AE0FEBDF59804880229603
:100540000895A2E00E941605ACE0E2DFA1E00E945F
:100550001605E0E04E2E5E2E0895AA93A881AA30DB
:1005600011F0571448F0E0E0EA934394A42DDCDF47
:10057000A881AA3009F443C05394A89AA881C8DF7F
:10058000A8983DC0BA93AA931A93A981BA81ED9114
:10059000A983BA831E2FE03019F0A12FDEDFF5CF3B
:1005A000188123960895AA93E4B3E06FE4BBA29A5E
:1005B000A09AA19AAA98A898A9987880E881E0586A
:1005C000E0938701E881E054E0938801A4E1B0E082
:1005D0000E9450050E941C050E941C050E941C05DB
:1005E000A0E282DF88EC90E00197F1F7A8E290DFCB
:1005F000A4E08EDFA5E88CDFA6E08ADFA2DF2196EB
:100600000895BA93AA931A930A93AA81BB8112966A
:100610000E94CD05309759F1AA81BB8114960E94A2
:10062000CD058F01309761F00230E0E01E0798F0B1
:10063000F80131978F01AA81BB811496ED93FC9349
:10064000AA81BB811296ED91FD913196FE93EE93B6
:100650003197AC81A083AA81BB810E94CD05FF2385
:100660002AF0ED91FD913196FE93EE9306C0AA819A
:10067000BB81EFEFFFEFED93FC9319810881259685
:100680000895BA93AA9326970E94DA0510E0AC85E4
:10069000BD85E0E0F0E0ED93FC93EA89FB893196BB
:1006A000EA8BFB8B3197E4912E2FE03009F415C1D2
:1006B000E12FE03039F4253211F411E002C00E943C
:1006C00024050AC1E130A9F4253219F40E94240559
:1006D00002C112E040E000E02D3211F401E0FCC064
:1006E0002B3211F44BE2F8C0203211F440E2F4C096
:1006F00002C0E23039F450E013E0203311F4006816
:10070000EBC003C0E33009F0E7C0203310F02A3318
:1007100008F007C0AAE05A9F502DE22FE0535E0F69
:10072000DBC0E22FE33649F40E942B05E889F98902
:10073000A481AA930E943105CEC0E33741F40E9400
:100740002B050E9437050E94A9041E2F0AC0E0371E
:1007500061F40E942B050E9437050E94B5041E2FEC
:10076000086002600F7730E034C0E43611F0E936FB
:1007700011F4046002C0E53731F4E4E5F0E0EE8303
:10078000FF8315E00CC0E83511F4086003C0E837BA
:1007900009F0A1C0EEE5F0E0EE83FF8314E002FF74
:1007A00014C00E942B050E944105AB85AA233AF490
:1007B000EA85FB850E945E05EA87FB874DE24030B3
:1007C00011F01F5F01C00B7F04C00E942B050E9427
:1007D000410500FD11C0151778F407FF08C002FF9E
:1007E00004C00B7F242F115001C020E301C020E280
:1007F0000E9424055150EFCF312F01FF17C0303038
:10080000A1F003FF06C0EE81FF812591EE83FF83F7
:1008100005C0AE81BF812D91AE83BF830E942405A8
:10082000503009F051503150EACF4BC020E3EE81F7
:10083000FF810E94D105E887F987EE81FF8132961A
:10084000EE83FF83E885F985AA85BB85AE17BF07D0
:1008500050F02F5FA885B985EA85FB85EA1BFB0B65
:10086000EA87FB87EFCF2A3328F003FF02C0295F16
:1008700001C0295D04FD1AC0213320F4A885B98583
:10088000119709F409C0531710F000FF01C013C0FD
:1008900020E207FF0BC020E3006102FF07C00B7FCF
:1008A0004A930E943105503009F051500E942405AE
:1008B000503009F051503150A885B985129708F091
:1008C000B5CF00FF08C0503031F05150E0E2EA935C
:1008D0000E943105F8CF10E0E0CEAC85BD850E94C6
:1008E000CD050E94E10564960895FF92F82E2697A3
:1008F0000E94DC050E944905309719F4EFEFFFEFE5
:1009000023C0DE0116960E945A058D010E944905FA
:10091000EE83FF83E0E0E887E987DE011A960E9414
:100920005A050E94CD05FA93EA931A930A93E1E0DF
:10093000F3E0FA93EA93DE011A96A3DE9F01AE81FB
:10094000BF81E0E0EC93F9010E94E3052A96FF9055
:100950000895BA93AA93A991B991EE27FF276D91B3
:10096000662311F03196FBCF0895BA93AA93AA2774
:10097000BB27E991F9910590002011F01196FBCF6A
:10098000FD0108950E94D200A8EEB3E00C9450053A
:100990000A921A92FA926A937A938A939A93AA93F2
:1009A000BA93EA93FA93EFB7EA930895A09181017D
:1009B000B09182010895E1E0EA93E0E0EA930895BE
:1009C000E0E0EA93A0E00C94F100E0917701EF5FA2
:1009D000E09377010895A0E00E94F100F6CFE0E0F7
:1009E000EA93EA930895A1E8B1E0ED91FD91319683
:1009F000FE93EE930895E0937601A8EBBBE00C9490
:100A00005005662777270E94D50584E00E9475046B
:100A10002896E0E0EA9308950E949402DE010C9487
:100A2000C202E0937901F0937A0108950E9488024E
:100A3000A3E0B0E00C945005A0E30E94740288EC9F
:100A400090E00197F1F708952A93AD85BE85EF8573
:100A5000F88909950895E889F9893497E88BF98B25
:100A60000895AD85BE85EF85F88909950895A88913
:100A7000B98914960E94CD05EE83FF83AE81BF81B4
:100A80000895A889B98914960E94CD05EA87FB8745
:100A90000895DE011C960E945A050E94CD05089516
:100AA000109639F080ED97E00197F1F7A89511972E
:100AB000C9F708950024AF0DB01D0895F195E19593
:100AC000F0400895F09560957095E195FF4F6F4F58
:100AD0007F4F08950024112490E1AA0FBB1F001C32
:100AE000111C0E1A1F0A18F40E0E1F1E01C0A16061
:100AF0009A9599F7FD01D00108952ED0EBDF0EF401
:100B0000DDDF08953F934F935F9300241124442722
:100B1000552730E2AA0FBB1F881F991F001C111C0C
:100B2000441F551F0E1A1F0A460B570B28F40E0EB2
:100B30001F1E461F571F01C0A1603A9559F7FD01BE
:100B4000BC01D001CA015F914F913F91089512D02D
:100B5000D9DF0EF4B7DF0895E894F7FF02C0AEDFE7
:100B60006894B7FF06C0A095B095119600F803945D
:100B700000FA0895E89477FF02C0A4DF689497FF15
:100B80000BC00024A095B095809590951196801D7E
:100B9000901D00F8039400FA0895ED91FC911197CF
:100BA00008950590F491E02D08957A936A93FA934D
:100BB000EA9308955A934A933A932A931A930A937D
:100BC00008955D814C813B812A81198108810895B6
:00000001FF
