:040000000C947100EB
:100004000C9400000C9400000C9400000C9400006C
:100014000C9400000C9400000C9400000C9400005C
:100024000C947C010C9400000C9400000C940000CF
:100034000C9400000C94AB000C9400000C94000091
:100044000C9400000C9400000C9400000C9400002C
:100054001027E80364000A000100001000011000EA
:10006400010000000000000000000000000000008B
:10007400000000000000000000000000000000007C
:1000840000005175657374696F6E203200414443FA
:100094005B25645D203D2025646D76005175657394
:1000A40074696F6E2031004144435B25645D203DDB
:1000B4002025646D760080C001002D4E414E00491C
:1000C4004E4600000B00600186000B006B01A0008F
:1000D40002008701BA0001008B01BC000000F89403
:1000E400EE27ECBBF1E0FBBFEBBFE5BF8DE0A2E088
:1000F400BB27ED938A95E9F780E094E0A0E6ED93C1
:100104000197E9F7E8ECF0E085919591009761F0AB
:10011400A591B59105901590BF01F00105900D9240
:100124000197E1F7FB01F0CFEFE5EDBFE4E0EEBFAF
:10013400C0E6D1E00C949E000E9467020E94600217
:100144000E94E9010E940C0515D139D17894FFCFA2
:10015400FFCF0E941005EC9784E1A0E0B0E0E6E652
:10016400F0E00E94EB070E94DF0720E030E0283037
:10017400E0E03E07A4F4F901DE0190960E944507F1
:10018400EA0FFB1FFF93EF93A22F89D1AF91BF9189
:100194000E941E050E94BB072F5F3F4FE8CFA0912E
:1001A4008601AF5FA0938601A83018F0E0E0E093E9
:1001B4008601E0918601E05CE7B98BE18A95F1F76D
:1001C40020E030E02830E0E03E070CF08DC0F9017B
:1001D400DE0190960E944507AE0FBF1F0E94B5072F
:1001E400EC87FD876E877F87AC85BD858E859F856F
:1001F400E0E0F0E060EA71E40E942305AC85BD858F
:100204008E859F850E943206EC8BFD8B6E8B7F8BD7
:10021400AC81BD818E819F810E942A050E942B069C
:10022400E88BF98B6A8B7B8B0E942F05AC89BD8987
:100234008E899F890E941E050E94150770F00E94F6
:100244002F05A889B9898A899B890E941E050E9465
:10025400150711F008F001C044C0F901A6E7B1E0A8
:10026400EE0FFF1FAE0FBF1F0E942A050E94BF059D
:10027400ED93FC930E944B04E0E0EA93A0E00E941B
:100284003E04A0E6B1E00E946C040E942A050E948C
:100294003905E887F9876A877B87A885B9858A85C0
:1002A4009B850E9442058F01FE017896FA93EA939A
:1002B400E1E9F0E0FA93EA93F9010E944905F801B3
:1002C4000E94490588E00E94EA032C96E0E0EA9344
:1002D400A1E00E943E04DE0158960E946C040E9434
:1002E4000C052F5F3F4F6ECF369A0E94E607EF96BC
:1002F400219632C00E9410052C978CE0A0E0B0E05B
:10030400EAE7F0E00E94EB07A0E0C9D00E941E05D6
:10031400E887F9876A877B870E9439050E94CE07A0
:100324000E94C9070E9442050E94F805DF01CB0123
:10033400E0E0F0E46CE975E40E942305A0E0B0E09D
:100344008FE793E40E948206DF01CB010E94DC0464
:100354000E94BF05ECBF2C96E991EFBFF991E9919A
:10036400B991A9919991899179916991F99019908B
:1003740009901895E0E0E3BFE2BFE0E8ECBFE0E0FD
:10038400EFBDEEBDEDBDECBDE7BDE6BDEBBDEABD29
:10039400E9BDE8BDE2BDE5BDE4BDE3BDE9BFE5BF40
:1003A400E4BFEAB9E0E8E8B9E0E4E7B9EBEEE6B9BE
:1003B400E0E0E0BFEDB9E6BF0E944B040895E9E632
:1003C400E3BFE0E0E2BFECBFE1E0E9BF0895A4973A
:1003D4000E94DF0700E010E00830E0E01E070CF0A8
:1003E4005AC0E0E0EA93A0E00E943E04ABE6B1E02C
:1003F4000E946C04F801DE015496EE0FFF1FEA0F11
:10040400FB1FFF93EF93A02F4AD0AF91BF91ED93C1
:10041400FC93F801DE015496EE0FFF1FAE0FBF1FD1
:100424000E94B1070E944A07A8E8B3E180E090E087
:100434000E946F07ECA3FDA36EA37FA3ACA1BDA193
:100444008EA19FA1E0E0F4E060E070E00E949907D3
:100454009F01E0E0EA93A1E00E943E04FE0134968D
:10046400FA93EA93EBEAF0E0FA93EA93F8010E9434
:100474004905F9010E94490588E00E94EA032C9687
:10048400DE0114960E946C040E940C050E944B0429
:100494000F5F1F4FA1CF0E94E607A8960895AA9365
:1004A400E881E064E7B98BE18A95F1F7369A349BE9
:1004B400FECF349AE4B1F5B10C94A904E0E4E7B9B1
:1004C400E3EAE6B9E0E0E0BF0895E0E0EABBEBBBB5
:1004D400E8E0E7BBE0E0E8BBE4BBE5BBE1BBE2BBD3
:1004E400A0E10E947D040895BA93AA931A930A93F3
:1004F400AA81BB8112960E94B107309759F1AA8153
:10050400BB8114960E94B1078F01309761F00230CD
:10051400E0E01E0798F0F80131978F01AA81BB81B2
:100524001496ED93FC93AA81BB811296ED91FD91F3
:100534003196FE93EE933197AC81A083AA81BB815F
:100544000E94B107FF232AF0ED91FD913196FE93AD
:10055400EE9306C0AA81BB81EFEFFFEFED93FC930E
:100564001981088125960895BA93AA9326970E9423
:10057400DD0710E0AC85BD85E0E0F0E0ED93FC9391
:10058400EA89FB893196EA8BFB8B3197E4912E2F14
:10059400E03009F415C1E12FE03039F4253211F4CB
:1005A40011E002C00E944E050AC1E130A9F42532CF
:1005B40019F40E944E0502C112E040E000E02D3221
:1005C40011F401E0FCC02B3211F44BE2F8C02032EC
:1005D40011F440E2F4C002C0E23039F450E013E018
:1005E400203311F40068EBC003C0E33009F0E7C026
:1005F400203310F02A3308F007C0AAE05A9F502D88
:10060400E22FE0535E0FDBC0E22FE33649F40E9491
:100614005505E889F989A481AA930E945B05CEC097
:10062400E33741F40E9455050E9461050E94F304DA
:100634001E2F0AC0E03761F40E9455050E9461052F
:100644000E94FF041E2F086002600F7730E034C060
:10065400E43611F0E93611F4046002C0E53731F4F0
:10066400E4E5F0E0EE83FF8315E00CC0E83511F417
:10067400086003C0E83709F0A1C0EEE5F0E0EE83BE
:10068400FF8314E002FF14C00E9455050E946B050D
:10069400AB85AA233AF4EA85FB850E943907EA87E9
:1006A400FB874DE2403011F01F5F01C00B7F04C097
:1006B4000E9455050E946B0500FD11C0151778F4C2
:1006C40007FF08C002FF04C00B7F242F115001C094
:1006D40020E301C020E20E944E055150EFCF312F9C
:1006E40001FF17C03030A1F003FF06C0EE81FF8187
:1006F4002591EE83FF8305C0AE81BF812D91AE832A
:10070400BF830E944E05503009F051503150EACF5A
:100714004BC020E3EE81FF810E94C007E887F98780
:10072400EE81FF813296EE83FF83E885F985AA8501
:10073400BB85AE17BF0750F02F5FA885B985EA8542
:10074400FB85EA1BFB0BEA87FB87EFCF2A3328F0F4
:1007540003FF02C0295F01C0295D04FD1AC02133D3
:1007640020F4A885B985119709F409C0531710F02E
:1007740000FF01C013C020E207FF0BC020E30061AB
:1007840002FF07C00B7F4A930E945B05503009F0BB
:1007940051500E944E05503009F051503150A885F7
:1007A400B985129708F0B5CF00FF08C0503031F07A
:1007B4005150E0E2EA930E945B05F8CF10E0E0CEEE
:1007C400AC85BD850E94B1070E94E4076496089534
:1007D400FF92F82E26970E94DF070E947305309738
:1007E40019F4EFEFFFEF23C0DE0116960E943507E0
:1007F4008D010E947305EE83FF83E0E0E887E987BB
:10080400DE011A960E9435070E94B107FA93EA9313
:100814001A930A93E6E7F2E0FA93EA93DE011A9652
:10082400A3DE9F01AE81BF81E0E0EC93F9010E9459
:10083400E6072A96FF900895AA93E5B3EF70AE2FCA
:10084400E881E07FEA2BE5BB8DE08A95F1F7AA9A6F
:100854008DE08A95F1F7AA988DE08A95F1F777C033
:10086400AA93A881E9DFE881E295E883A881E4DF1F
:1008740085E88A95F1F76BC0AA93E881F0E0E9571F
:10088400FE4FE081A981AE0FEBDF598048802296AC
:100894000895A2E00E947A05ACE0E2DFA1E00E94A4
:1008A4007A05E0E04E2E5E2E0895AA93A881AA3020
:1008B40011F0571448F0E0E0EA934394A42DDCDFF0
:1008C400A881AA3009F443C05394A89AA881C8DF28
:1008D400A8983DC0BA93AA931A93A981BA81ED91BD
:1008E400A983BA831E2FE03019F0A12FDEDFF5CFE4
:1008F400188123960895AA93E4B3E06FE4BBA29A07
:10090400A09AA19AAA98A898A9987880E881E05812
:10091400E0938901E881E054E0938A01A4E1B0E026
:100924000E9488050E9480050E9480050E9480051F
:10093400A0E282DF88EC90E00197F1F7A8E290DF73
:10094400A4E08EDFA5E88CDFA6E08ADFA2DF219693
:1009540008950E94D8077B816A81F981E88177FB39
:10096400770F67FD7160972F9E5781F078F098316B
:1009740090F4AA27BB27882708948795B795A7954D
:100984009A95D1F7EA23FB23682305C0E8947727D7
:10099400EE27FF2766276F77769508F4606877F966
:1009A400A991B99189919991EA17FB076807790789
:1009B40097FB08950E94D8070E94C9070E94AB04C0
:1009C4000E94CE0719F40E94C40709C0E6F70E94EA
:1009D400C407A0E0B0E080E89FE30E942B062496C1
:1009E4000895BA93AA93A991B991EE27FF276D911F
:1009F400662311F03196FBCF0895BA93AA93AA27E0
:100A0400BB27E991F9910590002011F01196FBCFD5
:100A1400FD010895A8EEB3E00C9488050A921A9299
:100A2400FA926A937A938A939A93AA93BA93EA93DB
:100A3400FA93EFB7EA930895662777270E94F8059B
:100A440008950E94D006EC83FD836E837F8308950E
:100A5400EC85FD856E857F850895F901A6E7B1E0F3
:100A6400EE0FFF1FAE0FBF1F0E94B10708950E9433
:100A7400C105A8E8B3E180E090E00E946F07089503
:100A8400EFEFF3E060E070E00E94990708950E94A0
:100A94004A070E94D30708952A93AD85BE85EF8542
:100AA400F88909950895E889F9893497E88BF98BD1
:100AB4000895AD85BE85EF85F88909950895A889BF
:100AC400B98914960E94B107EE83FF83AE81BF817A
:100AD4000895A889B98914960E94B107EA87FB870B
:100AE4000895DE011C960E9435070E94B1070895FF
:100AF4000E943204A3E0B0E00C948805A0E30E94B5
:100B04001E0488EC90E00197F1F70895109639F0EF
:100B140080ED97E00197F1F7A8951197C9F708952B
:100B2400552342F4503811F4E0FF04C03196691F94
:100B3400791F6BF050E8572711F45F93CFC05F3FE4
:100B440031F0660F000C57956795752F08955F93E4
:100B540000200AF0CFC0C8C050E8192E1522880F13
:100B6400991F9527550F879550E8072E0522660F84
:100B7400771F7527550F67950895689401C0E89409
:100B84005F93F2DF703818F07F3F08F4A7C056E196
:100B9400571BAAF4519558300EF4593030F0EFEF4A
:100BA400FFEF6FEF7FE777F91AC077275523B9F086
:100BB400EE0FFF1F661F771F5A95D1F710C07727D6
:100BC400583028F0EF2FF62F672F5850F9CF5523C0
:100BD40031F076956795F795E7955A95D1F700200A
:100BE4000AF449D15F910895689401C0E89430975C
:100BF40060407040B1F0002426F0772312F4009492
:100C04003AD1172E7EE1112032F07A95EE0FFF1FB4
:100C1400661F111CF9CFEF2FF62F612D5F938ADF2A
:100C24005F9108954F93AF01FD01DA01AB01BC015F
:100C3400CA01402D012C142E4F910895EA0FFB1F79
:100C4400681F0895E095F0956095EF5FFF4F6F4F33
:100C540008955F9381DF903871F150E8152604C040
:100C64005F937ADF903839F1703821F1572F591B8F
:100C74002BF112F4D7DFFACF583118F0AA27BB278B
:100C84008827583028F0AB2FB82F88275850F9CF31
:100C9400552329F08695B795A7955A95D9F7502DE0
:100CA400512572F0CBDF38F46795F795E795739586
:100CB40013F420C0B7DF3EDF5F910895D8F7FBCF70
:100CC400EA1BFB0B680B51F010F40094BBDF6623A6
:100CD40092F3EE0FFF1F661F7A95CBF7EE27FF27DF
:100CE400662777275F910895EFEFFFEF6FE77FEFB8
:100CF4005F910895EFEFFFEF6FE77FE75F9108954E
:100D04005F932ADF703851F3903841F3012408943B
:100D1400791F23F41CF300203AF3ECCF0F921F93B6
:100D24002F933F934F93112722279927689FA00160
:100D34008F9F302D410D591F6B9F300D411D591F41
:100D44008E9F27D0BF9F25D06A9F23D0BE9F1DD0E2
:100D5400AF9F1BD0AE9F110D291F391F491F591F6B
:100D6400E32FF42F652F522F4F913F912F911F9115
:100D74000F9066232AF0550FEE1FFF1F661F02C057
:100D840073954BF2CDDE5F910895100D211D391F2F
:100D940002C0200D311D491F591F08955F93DCDEE9
:100DA400703821F411200AF49FCFA4CF903809F4AD
:100DB40095CF01240894970B1BF4D4F30020F3CFB0
:100DC400792F1F932F933F934F9311241127222799
:100DD40033274427552790E2AE17BF0786074107FC
:100DE40030F0AE1BBF0B860B410B089401C08894F6
:100DF400551F221F331F111CAA1FBB1F881F441F0E
:100E04009A9551F7F901612D4F913F912F911F91BF
:100E1400662332F0550FEE1FFF1F661F7A9543F2CB
:100E24007FDE5F91089599239AF0772342F0971714
:100E340048F029F4AE17BF07860720F031F09894E4
:100E4400889408959894089408951894889408951B
:100E54007723C2F7971798F3A9F7EA17FB076807F0
:100E640088F399F3ECCF0024AF0DB01D0895F195EC
:100E7400E195F0400895F09560957095E195FF4FE8
:100E84006F4F7F4F0895EE0FFF1FEE0FFF1F089562
:100E94006F2F660F660B762F08957A9F702D6B9FC8
:100EA400700DF89F700DE99F700D6A9F602D710D94
:100EB400FB9F600D711DE89F600D711D8827FA9FCF
:100EC400F02D610D781FEB9FF00D611D781FEA9FD7
:100ED400E02DF10D681F781F08952ED0DEDF0EF48B
:100EE400CADF08953F934F935F930024112444274E
:100EF400552730E2AA0FBB1F881F991F001C111C25
:100F0400441F551F0E1A1F0A460B570B28F40E0ECA
:100F14001F1E461F571F01C0A1603A9559F7FD01D6
:100F2400BC01D001CA015F914F913F91089504D053
:100F3400D9DF0EF4A0DF0895E89477FF02C09BDFA9
:100F4400689497FF0BC00024A095B0958095909568
:100F54001196801D901D00F8039400FA0895ED91F8
:100F6400FC9111970895ED91FD916D917C911397EA
:100F74000895ED93FD936D937C9308950590F491FA
:100F8400E02D0895E881F9816A817B810895A88123
:100F9400B9818A819B810895E883F9836A837B837D
:100FA40008957A936A93FA93EA9308959A938A93A5
:100FB400BA93AA9308955A934A933A932A931A9305
:100FC4000A9308955D814C813B812A8119810881AE
:100FD4000895AC0FBD1F05900D928A95E1F7089511
:00000001FF
