:0A0000000C94C6010C9400000C944F
:10000A0000000C9400000C9400000C9400000C9466
:10001A0000000C9400000C9400000C9400000C9456
:10002A0000000C94F3010C9400000C9425020C942B
:10003A0000000C9400000C9400000C9400000C9436
:10004A0000000C9400000C9400001027E8036400E0
:10005A000A00010000100001100001000000000069
:10006A000000000000000000000000000000000086
:10007A000000000000000000000000000000000076
:10008A000000000000000000000000000000000066
:10009A000000000000000000000000000000000056
:1000AA000000000000000000000000000000000046
:1000BA000000000000000000000000000000000036
:1000CA000000000000000000000000000000000026
:1000DA00000000007061727420322069732072750A
:1000EA006E6E696E67210D000D54783A000D5278D4
:1000FA003A20446174613D256420616E6420313088
:10010A002A446174613D2564200D0054783A202503
:10011A00640052783A20446174613D256420616E1E
:10012A00642031302A446174613D2564004C4344A3
:10013A002064656C657465000D4C43442064656CED
:10014A006574650D000D5468697320697320415AFE
:10015A0037206F66204D6963726F70726F636573C3
:10016A00736F72204C6162206174204955540D00EE
:10017A005468697320697320415A37206F66204D8D
:10018A006963726F70726F636573736F72204C610B
:10019A006220617420495554000D52783A20454E28
:1001AA0044206F66207468697320706172740D0050
:1001BA0052783A20454E44206F662074686973204D
:1001CA0070617274000D52783A20696E70757420ED
:1001DA006C6574746572206973200054783A20251E
:1001EA00630052783A20696E707574206C65747475
:1001FA006572206973202225632220000D506172E6
:10020A0074203220697320656E64696E67210D005F
:10021A007061727420332069732072756E6E696E14
:10022A0067210D000D4672616D65206D757374202E
:10023A006265203520696E74656765720D004672C5
:10024A00616D65206D757374206265203520696E55
:10025A007465676572000D496E636F7272656374C7
:10026A00206672616D652073697A652E0D00496E8C
:10027A00636F7272656374206672616D652073695B
:10028A007A652E000D546865206672616D65206975
:10029A007320636F72726563740D0054686520661B
:1002AA0072616D6520697320636F72726563740091
:1002BA000D50617274203320697320656E64696E13
:1002CA006721000001002D4E414E00494E460000B4
:1002DA0080C00100020066000600040068001400E5
:1002EA006001DE0005007401F2000B00790137019C
:1002FA000D00840142012B0091014F012900BC012C
:10030A007A011700E501A3011500FC01BA010500F5
:10031A001102F20016001602CF0102002C02F000B0
:10032A0014002E020602140042021A0205005602A6
:10033A00F2001A005B022E0218007502480205003C
:10034A008D02F2001800920260020400AA02F30071
:10035A001600AE0278020500C402F2001700C902B4
:10036A008E020400E002F3001500E402A502130065
:10037A00F902BA0201001C03CE0202002003DA02CB
:10038A000000F894EE27ECBBF1E0FBBFEBBFE5BF42
:10039A008DE0A2E0BB27ED938A95E9F780E094E02F
:1003AA00A0E6ED930197E9F7ECEDF2E085919591DE
:1003BA00009761F0A591B59105901590BF01F001E4
:1003CA0005900D920197E1F7FB01F0CFEFE5EDBF44
:1003DA00E4E0EEBFC0E6D1E00C943C02EA93FA9363
:1003EA00EFB7EA931A930A931BB10CB1E12FEC71A0
:1003FA0089F4E52D5394F0E0E45FFC4F0083E8E0D4
:10040A00E51509F455247394E8E0E71519F47724FF
:10041A00689420F80991199125C01A937720F1F36D
:10042A00E42D4394F0E0E45FFC4F1081E8E0E4152A
:10043A0009F44424F8947A947894E12F1991089550
:10044A00EA93FA93EFB7EA93882061F08A94E92D48
:10045A009394F0E0EC5EFC4FE081ECB9E8E0E9153A
:10046A0009F49924E991EFBFF991E99118957ED1A0
:10047A0003D0C7D0FFCFFFCF2A978AE0A0E0B0E031
:10048A00EEE6F0E00E94C6070E94BA0710E020E0FC
:10049A0030E0A0E6B1E00E94A204BFDF1E2F1033B5
:1004AA0019F420E030E02FC0113319F421E030E0D4
:1004BA002AC0123319F422E030E025C0133319F4AC
:1004CA0023E030E020C0143319F424E030E01BC0EC
:1004DA00153319F425E030E016C0163319F426E076
:1004EA0030E011C0173319F427E030E00CC018339C
:1004FA0019F428E030E007C0193319F429E030E094
:10050A0002C02BE030E02A30E0E03E0714F5A4E711
:10051A00B1E00E94A204A12F0E949B040E947106CE
:10052A00E7EFF0E00E9476060E947E06DE0114964E
:10053A000E948C060E947106E5E1F1E00E947606AF
:10054A000E949006ECE1F1E00E9476060E947E0687
:10055A0049C0143459F40E944304A9E7B1E00E9447
:10056A006404A4E8B1E00E94A20443C0183439F438
:10057A00A1E9B1E00E948C06ACEBB1E038C01534B9
:10058A0049F4A5EEB1E00E948C06ACEFB1E00E94FE
:10059A00640433C0A1E1B2E00E94A204A12F0E9428
:1005AA009B04A6E1B2E00E94A204A2E20E949B047C
:1005BA00A12F0E949B04A2E20E949B04ACE2B2E03B
:1005CA000E948C060E947106E5EEF1E00E949906EF
:1005DA000E949006ECEEF1E00E94990684E00E94E7
:1005EA0024062896E0E00E94A206DE0114960E94E4
:1005FA006404AEE2B2E00E94A2040E94C1072E96F1
:10060A000895EF97A79786E6A0E0B0E0E8E7F0E064
:10061A000E94C6070E94B80710E020E030E041E0DF
:10062A0050E0A2E4B2E00E94A2040E94A6061D3095
:10063A0059F0F901DE011896EA0FFB1F10830E9498
:10064A00A6062F5F3F4FF3CF0E944304E2E0F0E09B
:10065A00EE83FF830E94AC06A93289F10E94AC06A0
:10066A00A03321F10E94AC06A13301F10E94AC062D
:10067A00A233E1F00E94AC06A333C1F00E94AC069B
:10068A00A433A1F00E94AC06A53381F00E94AC0607
:10069A00A63361F00E94AC06A73341F00E94AC0673
:1006AA00A83321F00E94AC06A93309F402C040E045
:1006BA0050E0EE81FF813196EE83FF83CBCF042E8B
:1006CA00052A01F5A6E5B2E00E94B406ABE5B2E060
:1006DA000E94A204FE013896FA93EA93E5E1F1E05A
:1006EA00FA93EA93FA010E9465070E94B30784E02D
:1006FA000E94240628960E9443040E94BD06A5E78C
:10070A00B2E026C0E9E0F0E0E217F30789F0ADE8CD
:10071A00B2E00E94B406A2E9B2E00E948C06AAEAFC
:10072A00B2E00E9464040E94BD06AEEAB2E010C0C4
:10073A00A4ECB2E00E94B406A9ECB2E00E948C06D6
:10074A00A0EEB2E00E9464040E94BD06A4EEB2E0EC
:10075A000E946404A9EFB2E00E94A204ADE00E94E4
:10076A009B040E94BF07EF96AD9608952497E0E098
:10077A00E883E983EA83EB831A930A9300E010E0A3
:10078A00EABBEBBBE7BBE8BBEFEFE4BBE0E0E5BBF2
:10079A00E1BBE2BBE3BFE2BFECBFEFBDEEBDEDBD27
:1007AA00ECBDE7BDE6BDEBBDEABDE9BDE8BDE2BD16
:1007BA00E5BDE4BDE3BDE9BFE5BFE4BFE0E8E8B9F4
:1007CA00E0E0E0BFE6B9EDB9E6BFA0E10E946E0441
:1007DA00E0E0EBB9E8EDEAB9E6E8E0BDE0E0F0E038
:1007EA006CE472E4EA83FB836C837D830E941A07BC
:1007FA008F010F3FE0E01E0714F409B90CC0D801BD
:10080A00EFEFF0E00E948F07E9B9D801EFEFF0E0CF
:10081A000E948A07E0BD7894198108812696089576
:10082A00AA93E5B3EF70AE2FE881E07FEA2BE5BB30
:10083A008DE08A95F1F7AA9A8DE08A95F1F7AA9840
:10084A008DE08A95F1F70C94A004AA93A881E8DFB9
:10085A00E881E295E883A881E3DF85E88A95F1F7E4
:10086A006AC0AA93E881F0E0E05EFC4FE081A981CA
:10087A00AE0FEBDFB980A88022960895A2E00E940D
:10088A00C306ACE0E2DFA1E00E94C306E0E0AE2EC0
:10089A00BE2E0895AA93A881AA3011F0BD1448F07B
:1008AA00E0E0EA93A394AA2DDCDFA881AA3009F438
:1008BA0042C0B394A89AA881C8DFA8983CC0BA934A
:1008CA00AA931A930E94C90619F0A12FE3DFFACF5F
:1008DA003FC0AA93E4B3E06FE4BBA29AA09AA19A9C
:1008EA00AA98A898A998D880E881E058E0932203AA
:1008FA00E881E054E0932303A4E1B0E00E940507F5
:10090A000E94D1060E94D1060E94D106A0E288DF89
:10091A0088EC90E00197F1F7A8E297DFA4E095DF71
:10092A00A5E893DFA6E091DFA9DF05C0AA935D9B46
:10093A00FECFE881ECB921960895BA93AA931A9347
:10094A000E94C90619F0A12FF1DFFACFAAE0EEDF63
:10095A00188123960895BA93AA931A930A93AA819F
:10096A00BB8112960E94AB07309759F1AA81BB81CD
:10097A0014960E94AB078F01309761F00230E0E0D5
:10098A001E0798F0F80131978F01AA81BB8114964E
:10099A00ED93FC93AA81BB811296ED91FD9131965C
:1009AA00FE93EE933197AC81A083AA81BB810E940A
:1009BA00AB07FF232AF0ED91FD913196FE93EE935A
:1009CA0006C0AA81BB81EFEFFFEFED93FC9319817B
:1009DA00088125960895BA93AA9326970E94B80784
:1009EA0010E0AC85BD85E0E0F0E0ED93FC93EA8988
:1009FA00FB893196EA8BFB8B3197E4912E2FE030FD
:100A0A0009F415C1E12FE03039F4253211F411E06F
:100A1A0002C00E94D9060AC1E130A9F4253219F4AC
:100A2A000E94D90602C112E040E000E02D3211F422
:100A3A0001E0FCC02B3211F44BE2F8C0203211F471
:100A4A0040E2F4C002C0E23039F450E013E020334F
:100A5A0011F40068EBC003C0E33009F0E7C02033AB
:100A6A0010F02A3308F007C0AAE05A9F502DE22F4F
:100A7A00E0535E0FDBC0E22FE33649F40E94E00642
:100A8A00E889F989A481AA930E94E606CEC0E337D1
:100A9A0041F40E94E0060E94EC060E9458061E2FAE
:100AAA000AC0E03761F40E94E0060E94EC060E9448
:100ABA0064061E2F086002600F7730E034C0E43607
:100ACA0011F0E93611F4046002C0E53731F4E4E5C7
:100ADA00F0E0EE83FF8315E00CC0E83511F40860FE
:100AEA0003C0E83709F0A1C0EEE5F0E0EE83FF832A
:100AFA0014E002FF14C00E94E0060E94F606AB85CD
:100B0A00AA233AF4EA85FB850E945907EA87FB87FC
:100B1A004DE2403011F01F5F01C00B7F04C00E94FC
:100B2A00E0060E94F60600FD11C0151778F407FFCB
:100B3A0008C002FF04C00B7F242F115001C020E31C
:100B4A0001C020E20E94D9065150EFCF312F01FF98
:100B5A0017C03030A1F003FF06C0EE81FF81259156
:100B6A00EE83FF8305C0AE81BF812D91AE83BF8323
:100B7A000E94D906503009F051503150EACF4BC08B
:100B8A0020E3EE81FF810E94AF07E887F987EE81B3
:100B9A00FF813296EE83FF83E885F985AA85BB85B6
:100BAA00AE17BF0750F02F5FA885B985EA85FB8588
:100BBA00EA1BFB0BEA87FB87EFCF2A3328F003FFF8
:100BCA0002C0295F01C0295D04FD1AC0213320F447
:100BDA00A885B985119709F409C0531710F000FFC9
:100BEA0001C013C020E207FF0BC020E3006102FF2F
:100BFA0007C00B7F4A930E94E606503009F0515015
:100C0A000E94D906503009F051503150A885B98553
:100C1A00129708F0B5CF00FF08C0503031F051509C
:100C2A00E0E2EA930E94E606F8CF10E0E0CEAC8557
:100C3A00BD850E94AB070E94BF0764960895FF9284
:100C4A00F82E26970E94BA070E94FE06309719F4DA
:100C5A00EFEFFFEF23C0DE0116960E9455078D01C4
:100C6A000E94FE06EE83FF83E0E0E887E987DE0163
:100C7A001A960E9455070E94AB07FA93EA931A93B1
:100C8A000A93E0EBF4E0FA93EA93DE011A96A3DE04
:100C9A009F01AE81BF81E0E0EC93F9010E94C10798
:100CAA002A96FF900895BA93AA93A991B991EE272B
:100CBA00FF276D91662311F03196FBCF0895BA9301
:100CCA00AA93AA27BB27E991F9910590002011F070
:100CDA001196FBCFFD010895FE013496FA93EA932B
:100CEA000895FA93EA93F9010E9465070E94B307EF
:100CFA000895F901AAE0B0E00E9472070E94650710
:100D0A000E94B30788E00E9424062C9608950E9448
:100D1A00A2040C94430484E00E9424062896DE016F
:100D2A0014960E946404D8CFFA93EA93E12FFF271E
:100D3A00662777270E94B3070895EA93A1E00C94E7
:100D4A0036040E9412021E2FA12F0C949B04EE81DE
:100D5A00FF81DE011896AE0FBF1FAC9108950E9465
:100D6A00A204DE0118960E94A204ADE00C949B0432
:100D7A00DE0118960E946404E0E0DFCF0E942A0494
:100D8A00A3E0B0E00C940507A981BA81ED91A9838B
:100D9A00BA831E2FE0300895A0E30E94150488EC60
:100DAA0090E00197F1F708952A93AD85BE85EF8506
:100DBA00F88909950895E889F9893497E88BF98BB8
:100DCA000895AD85BE85EF85F88909950895A889A6
:100DDA00B98914960E94AB07EE83FF83AE81BF8167
:100DEA000895A889B98914960E94AB07EA87FB87F8
:100DFA000895DE011C960E9455070E94AB070895CC
:100E0A00109639F080ED97E00197F1F7A8951197C0
:100E1A00C9F7089550E8072E0522660F771F752730
:100E2A00550F67950895689401C0E8945F93F2DFBF
:100E3A00703818F07F3F08F42DC056E1571BAAF40A
:100E4A00519558300EF4593030F0EFEFFFEF6FEF55
:100E5A007FE777F91AC077275523B9F0EE0FFF1FFE
:100E6A00661F771F5A95D1F710C07727583028F098
:100E7A00EF2FF62F672F5850F9CF552331F076957B
:100E8A006795F795E7955A95D1F700200AF410D09F
:100E9A005F910895EE27FF27662777275F910895C8
:100EAA000024AF0DB01D0895F195E195F040089525
:100EBA00F09560957095E195FF4F6F4F7F4F0895BC
:100ECA006F2F660F660B762F0895FA9FF02DEB9F12
:100EDA00F00DEA9FE02DF10D08952AD0F6DF0EF409
:100EEA00E3DF08950024112490E1AA0FBB1F001C20
:100EFA00111C0E1A1F0A18F40E0E1F1E01C0A16043
:100F0A009A9599F7FD01D001089512D0EBDF0EF4FE
:100F1A00CBDF0895E894B7FF04C0A095B095119669
:100F2A006894F7FDC1DFDEDFFD010EF4BDDF089531
:100F3A00E894F7FF02C0B8DF6894B7FF06C0A0952F
:100F4A00B095119600F8039400FA0895ED91FC917A
:100F5A00119708950590F491E02D08957A936A9374
:100F6A00FA93EA9308955A934A933A932A931A93CF
:100F7A000A9308955D814C813B812A8119810881F8
:100F8A000895AC0FBD1F05900D928A95E1F708955B
:00000001FF
