:0E0000000C9439000C9400000C9400000C9439
:10000E0000000C9400000C9400000C9400000C9462
:10001E0000000C9400000C9400000C9400000C9452
:10002E0000000C9400000C9400000C9400000C9442
:10003E0000000C9400000C9400000C9400000C9432
:10004E0000000C9400003F065B4F666D7D077F6FCE
:10005E003F065B4F666D7D077F6F3F065B4F666D9C
:10006E007D077F6FF894EE27ECBBF1E0FBBFEBBF93
:10007E00E5BF8DE0A2E0BB27ED938A95E9F780E01E
:10008E0094E0A0E6ED930197E9F7EFE5EDBFE4E02C
:10009E00EEBFC0E6D1E00C942C011A930A9300E057
:1000AE0010E000E010E00430E0E01E077CF4EFEF1B
:1000BE00E8BBA4EFB1E00E94BD01E0E0E8BBA4EF15
:1000CE00B1E00E94BD010F5F1F4FEDCF0991199155
:1000DE0008950E941E0204E010E020E030E0E02FC0
:1000EE00A1E00E94CB01E8BBA8EEB3E00E94BD01E7
:1000FE0020E030E02930E0E03E0794F4F901E00F13
:10010E00F11FA7E0B0E00E940602A1E00E94CB0121
:10011E00E8BBA7E7B1E00E94BD012F5F3F4FEACFDA
:10012E000E942302249608951A9319B3A5D0E9B319
:10013E00E8BB19910895A4D0E4E5F0E00E942802EE
:10014E001A930A9300E010E0E2B3E07FE2BB09E00D
:10015E0010E011236AF0DE011296A00FB11FEC9190
:10016E00E5BBA0E9B1E00E94BD0101501040F1CF06
:10017E00198108812C96089583D0EEE5F0E00E9457
:10018E00280283D08AD0112382F020E030E025307F
:10019E00E0E03E073CF488D0D5D0D9D028962F5F2A
:1001AE003F4FF5CF02501040EECF4BC069D0E8E67E
:1001BE00F0E00E94280269D070D011230AF441C0E9
:1001CE00849907C0D801EAE0F0E00E94F8010E1B06
:1001DE001F0B85990DC0D801E4E6F0E00E94F801EE
:1001EE00DF01EAE0F0E00E94F301AAE0B0E0B9D04E
:1001FE0086990DC0D801E8EEF3E00E94F801DF0108
:10020E00E4E6F0E00E94F301A4E6B0E0AAD08799FC
:10021E0008C0D801E8EEF3E00E94F301A8EEB3E0C7
:10022E00A0D020E030E02530E0E03E073CF43CD0AA
:10023E0089D08DD028962F5F3F4FF5CF02501040BA
:10024E00BCCF0E9423022E960895E0E0EABBEBBBE2
:10025E00EFEFE7BBE0E0E8BBEFEFE4BBE0E0E5BBD0
:10026E00EFE0E1BBE0E0E2BB18DF33DF5DDF63DF31
:10027E0083DF9CDFF9CFFFCFA5E0B0E00C94BD018A
:10028E002A978AE0A0E0B0E008950E941E02E9B32A
:10029E00F0E08F0120E030E0EFCFF801AAE0B0E00F
:1002AE000E94DB018F0108952897D801E8EEF3E054
:1002BE000E94F301EE83FF83D801E8EEF3E00E9483
:1002CE00F801DF01E4E6F0E00E94F301EC83FD8328
:1002DE00D801E4E6F0E00E94F801DF01EAE0F0E088
:1002EE000E94F301EA83FB83D801EAE0F0E00E946A
:1002FE00F801E883F983EEEFE2BBEE81FF81DE01C8
:10030E001C96AE0FBF1FEC91E5BBAAE0B0E00E94B9
:10031E00BD01EDEFE2BBEC81FD81DE011C96AE0F5F
:10032E00BF1FEC91E5BBAAE0B0E00E94BD01EBEF70
:10033E00E2BBEA81FB81DE011C96AE0FBF1FEC9182
:10034E00E0680895E5BBAAE0B0E00C94BD01E7EFCC
:10035E00E2BBE881F981DE011C96AE0FBF1FEC9166
:10036E00F1CF0E94DB010E1B1F0B0895109639F082
:10037E0080ED97E00197F1F7A8951197C9F70895C9
:10038E00F195E195F0400895EE230E2EEA2F19F027
:10039E00EE0F0A94E9F70895FA9FF02DEB9FF00DFA
:1003AE00EA9FE02DF10D089534D0F6DF0EF4E8DF6C
:1003BE0008950024112490E1AA0FBB1F001C111CEC
:1003CE000E1A1F0A18F40E0E1F1E01C0A1609A9578
:1003DE0099F7FD01D00108951CD0EBDF0EF4D0DFAC
:1003EE000895E894B7FF04C0A095B095119668944F
:1003FE00F7FDC6DFDEDFFD010EF4C2DF0895E894DF
:10040E00F7FF02C0BDDF6894EA23FB230EF4B8DFCA
:10041E000895E894F7FF02C0B3DF6894B7FF06C0F3
:10042E00A095B095119600F8039400FA08953A93AA
:10043E002A931A930A9308953B812A811981088180
:10044E000895AC0FBD1F05900D928A95E1F70895A2
:00000001FF
