:040000000C949500C7
:100004000C9400000C9400000C9400000C9400006C
:100014000C9400000C9400000C9400000C9400005C
:100024000C9400000C9400000C9400000C9400004C
:100034000C9400000C9400000C9400000C9400003C
:100044000C9400000C9400000C9400000C9400002C
:100054001027E80364000A000100001000011000EA
:10006400010000000000000000000000000000008B
:10007400000000000000000000000000000000007C
:10008400000000000000000000000000000000006C
:10009400000000000000000000000000000000005C
:1000A400000000000000000000000000000000004C
:1000B400000000000000000000000000000000003C
:1000C4000000000000000D5061727420312069733B
:1000D4002072756E6E696E67210D003C3C003E3ED9
:1000E400003E3E0D0050617274203120697320651A
:1000F4006E64696E67210D0080C015006001CA003E
:1001040003007501DF0003007801E20003007B01B6
:10011400DF0004007E01E50013008201E900020013
:100124009501FC000000F894EE27ECBBF1E0FBBF66
:10013400EBBFE5BF8DE0A2E0BB27ED938A95E9F71D
:1001440080E094E0A0E6ED930197E9F7EEEFF0E0AC
:1001540085919591009761F0A591B59105901590C1
:10016400BF01F00105900D920197E1F7FB01F0CF7B
:10017400EFE5EDBFE4E0EEBFC0E6D1E00C94C200D1
:1001840042D002D0FFCFFFCFEF97A59784E6A0E03F
:10019400B0E0E6E6F0E00E940B020E94010210E0EB
:1001A40020E030E0A0E6B1E00E94CD010E94DB0136
:1001B4001D3059F0F901DE011496EA0FFB1F10837C
:1001C4000E94DB012F5F3F4FF3CFA5E7B1E09FD043
:1001D400DE0114969CD0A8E7B1E099D0ABE7B1E07A
:1001E4000E94CD01DE0114960E94CD01AEE7B1E07C
:1001F4000E94CD01A2E8B1E00E94CD010E94060256
:10020400EF96A9960895E0E0EABBEBBBE7BBE8BB39
:10021400EFEFE4BBE0E0E5BBE1BBE2BBE3BFE2BF81
:10022400ECBFEFBDEEBDEDBDECBDE7BDE6BDEBBD86
:10023400EABDE9BDE8BDE2BDE5BDE4BDE3BDE9BF9E
:10024400E5BFE4BFEBB9E8E1EAB9E6E8E0BDE0E028
:10025400E0BDE3E3E9B9E0E8E8B9E0E0E0BFE6B92E
:10026400EDB9E6BFA0E15ED00895AA93E5B3EF70BF
:10027400AE2FE881E07FEA2BE5BB8DE08A95F1F7AC
:10028400AA9A8DE08A95F1F7AA988DE08A95F1F7FC
:100294000C94CB01AA93A881E8DFE881E295E88376
:1002A400A881E3DF85E88A95F1F70C94CB01AA9342
:1002B400E881F0E0EB56FE4FE081A981AE0FEADF62
:1002C4005980488022960895A2E00E94E101ACE0A2
:1002D400E1DFA1E00E94E101E0E04E2E5E2E0895F0
:1002E400AA93A881AA3011F0571450F0E0E0EA93E1
:1002F4004394A42DDCDFA881AA3011F40C94CB0123
:100304005394A89AA881C6DFA8980C94CB01BA93F9
:10031400AA931A930E94E70119F0A12FE1DFFACF03
:100324000C94D801AA93E4B3E06FE4BBA29AA09A18
:10033400A19AAA98A898A9987880E881E058E093AF
:100344009701E881E054E0939801A4E1B0E00E94B1
:10035400F7010E94EF010E94EF010E94EF01A0E269
:1003640084DF88EC90E00197F1F7A8E293DFA4E042
:1003740091DFA5E88FDFA6E08DDFA6DF0C94CB012B
:100384005F9BFECFECB10895AA935D9BFECFE881FD
:10039400ECB921960895BA93AA931A930E94E7019F
:1003A40019F0A12FF1DFFACFAAE0EEDF188123962E
:1003B40008950E94C2011E2FA12F0C94C6010E9411
:1003C4004C01A3E0B0E00C94F701A981BA81ED914E
:1003D400A983BA831E2FE0300895A0E30E94370159
:1003E40088EC90E00197F1F70895109639F080EDCC
:1003F40097E00197F1F7A8951197C9F708953A93F3
:100404002A931A930A9308953B812A8119810881BA
:100414000895AC0FBD1F05900D928A95E1F70895DC
:00000001FF
