:0C0000000C9465000C94EB010C94EF01D3
:10000C000C9400000C9400000C9400000C94000064
:10001C000C9400000C94FB010C94F7010C94000060
:10002C000C9400000C9400000C9400000C94000044
:10003C000C9400000C9400000C9400000C94F30140
:10004C000C9400000C9400001027E80364000A00D4
:10005C00010000100001100001000000000030251C
:10006C00643A00302564002020202020202000430A
:10007C00453A25640043453A46554C4C0054534789
:10008C003A25640080C0030005006600080060018A
:10009C0073000800680173000800700181000800FB
:1000AC00780173000800800181000800880173004A
:1000BC000800900181000200AC0190000000F8944F
:1000CC00EE27ECBBF1E0FBBFEBBFE5BF8DE0A2E0A0
:1000DC00BB27ED938A95E9F780E094E0A0E6ED93D9
:1000EC000197E9F7E2E9F0E085919591009761F0CD
:1000FC00A591B59105901590BF01F00105900D9259
:10010C000197E1F7FB01F0CFEFE5EDBFE4E0EEBFC7
:10011C00C0E6D1E00C940C02BA93AA93AE81BF81D5
:10012C001A972CF40E94A604EAE6F0E004C00E94A0
:10013C00A604EBE6F0E0FA93EA93EA85FB850E94CD
:10014C00AB04E0E00E94B404AC81BD811A972CF49E
:10015C000E94A604EAE6F0E004C00E94A604EBE6C6
:10016C00F0E0FA93EA93E885F9850E94AB04E3E0AA
:10017C000E94B404AA81BB811A972CF40E94A60495
:10018C00EAE6F0E004C00E94A604EBE6F0E0FA9385
:10019C00EA93EE81FF810E94AB04E6E00E94B40476
:1001AC00A881B9811A972CF40E94A604EFE6F0E01E
:1001BC0004C00E94A604E0E7F0E0FA93EA93EC8115
:1001CC00FD810E94AB04E9E00E94B40428960895D6
:1001DC00B59902C0552009F012C00E94BC040E94BF
:1001EC00BC040E94BC040E94C104E0E0E0939801AE
:1001FC00E0939901E0939A01E0939B010EC0B599AD
:10020C0003C0E1E0E51509F003C05524E0E004C0AB
:10021C00B49903C0E1E05E2EE3BF0895B3990DC01D
:10022C00E8EEF3E06E167F061CF4F30131963F0105
:10023C000E94C504A0E6B1E025C0B79934C0062CD5
:10024C00072859F40E94C504A8E6B1E00E94A60252
:10025C000E94C504A0E7B1E024C0F30131973F012F
:10026C00062C072859F40E94C504A8E7B1E00E94A7
:10027C00A6020E94C504A0E8B1E013C00E94C50408
:10028C00A8E8B1E00E94A6020E94C5040E94A60440
:10029C00EBE7F0E0FA93EA93F3010E94AB04ACE9CC
:1002AC00B1E00E94A602089524970E94D005E2EBCB
:1002BC00E2BFE0919801F091990160919A017091DF
:1002CC009B010E94CC0541F40E94BC040E94BC041A
:1002DC000E94BC040E94C104A8E9B1E00E94B905C7
:1002EC00EF5FFF4F6F4F7F4F0E94BE05E09198016B
:1002FC00F09199010E94CA04E4E6F0E00E9499058D
:10030C00E887F987AE81BF81E4E6F0E00E94CF0474
:10031C000E94D204AF010E94D7040E94D2049F0114
:10032C000E94D7040E94D2048F01AE81BF81ECE3FE
:10033C00F0E00E946F05EE83FF831A930A933A93C1
:10034C002A935A934A93AE85BF85E6DE0E94D70561
:10035C002A96089524971A930A93E9B3FF276627E0
:10036C007727EA83FB836C837D83ACE2B9E980E079
:10037C0090E00E943C05DF01CB01E8EEF3E060E089
:10038C0070E00E94740531968F014801ECBD0E940B
:10039C003205EDBDE7E0EA93A1E0A4D00E94A604EB
:1003AC00E9E8F0E0FA93EA93F8010E94AB04ACE9B7
:1003BC00B1E0C6D01981088126960895E82DECBDD0
:1003CC00F4010E943205EDBD08950E94DC0426DF85
:1003DC000FC00E94DC04FCDE0BC00E94DC04BADF00
:1003EC0007C00E94DC0460DF03C00E94DC04E6DF6F
:1003FC00E991EFBFF991E991B991A99199918991FD
:10040C0079916991F990199009901895E0E0EABBFF
:10041C00EBBBE7BBE8BBEFEFE4BBE5BBE0EFE1BB5D
:10042C00E0E0E2BBE5E0E3BFE2EBE2BFE0E0ECBF23
:10043C00E0E5EFBDEAE1EEBDE0E0EDBDECBDEFEFD8
:10044C00E7BDE6BDE0E0EBBDEABDE9BDE8BDE2BD60
:10045C00E5BDE4BDE3BDE5E0E9BFEBB7E06EEBBFA6
:10046C00E0E0E5BFE4BFE0EEEABFE0E0EAB9E0E8D7
:10047C00E8B9E0E0E0BFE6B9EDB9E6BFA0E171D0C4
:10048C007894E0E0E3BF0E94BC040E94BC040E948C
:10049C00BC040E94C1040E94C504A0E9B1E050D084
:1004AC00FFCFFFCFAA93E5B3EF70AE2FE881E07FCB
:1004BC00EA2BE5BB8DE08A95F1F7AA9A8DE08A9537
:1004CC00F1F7AA988DE08A95F1F777C0AA93A881E5
:1004DC00E9DFE881E295E883A881E4DF85E88A9585
:1004EC00F1F76BC0AA93E881F0E0E455FE4FE08190
:1004FC00A981AE0FEBDF4980B88022960895A2E067
:10050C000E94EA04ACE0E2DFA1E00E94EA04E0E031
:10051C00BE2E4E2E0895AA93A881AA3011F04A142B
:10052C0048F0E0E0EA93B394AB2DDCDFA881AA306D
:10053C0009F443C04394A89AA881C8DFA8983DC089
:10054C00BA93AA931A93A981BA81ED91A983BA831C
:10055C001E2FE03019F0A12FDEDFF5CF1881239686
:10056C000895AA93E4B3E06FE4BBA29AA09AA19A6F
:10057C00AA98A898A998A880E881E058E093AE01C1
:10058C00E881E054E093AF01A4E1B0E00E942005C3
:10059C000E94F0040E94F0040E94F004A0E282DFAA
:1005AC0088EC90E00197F1F7A8E290DFA4E08EDFF1
:1005BC00A5E88CDFA6E08ADFA2DF21960895BA9326
:1005CC00AA931A930A93AA81BB8112960E94B5052D
:1005DC00309759F1AA81BB8114960E94B5058F0101
:1005EC00309761F00230E0E01E0798F0F801319787
:1005FC008F01AA81BB811496ED93FC93AA81BB81D8
:10060C001296ED91FD913196FE93EE933197AC815C
:10061C00A083AA81BB810E94B505FF232AF0ED912E
:10062C00FD913196FE93EE9306C0AA81BB81EFEF4C
:10063C00FFEFED93FC931981088125960895BA93E9
:10064C00AA9326970E94D00510E0AC85BD85E0E00A
:10065C00F0E0ED93FC93EA89FB893196EA8BFB8BF6
:10066C003197E4912E2FE03009F415C1E12FE030E1
:10067C0039F4253211F411E002C00E94F8040AC1C9
:10068C00E130A9F4253219F40E94F80402C112E0F9
:10069C0040E000E02D3211F401E0FCC02B3211F4EB
:1006AC004BE2F8C0203211F440E2F4C002C0E23058
:1006BC0039F450E013E0203311F40068EBC003C0B0
:1006CC00E33009F0E7C0203310F02A3308F007C0FC
:1006DC00AAE05A9F502DE22FE0535E0FDBC0E22FB1
:1006EC00E33649F40E94FF04E889F989A481AA93AE
:1006FC000E940505CEC0E33741F40E94FF040E941E
:10070C000B050E948D041E2F0AC0E03761F40E9475
:10071C00FF040E940B050E9499041E2F08600260C2
:10072C000F7730E034C0E43611F0E93611F4046090
:10073C0002C0E53731F4E4E5F0E0EE83FF8315E029
:10074C000CC0E83511F4086003C0E83709F0A1C00B
:10075C00EEE5F0E0EE83FF8314E002FF14C00E948C
:10076C00FF040E941105AB85AA233AF4EA85FB85A8
:10077C000E942E05EA87FB874DE2403011F01F5F87
:10078C0001C00B7F04C00E94FF040E94110500FDF4
:10079C0011C0151778F407FF08C002FF04C00B7FC7
:1007AC00242F115001C020E301C020E20E94F80464
:1007BC005150EFCF312F01FF17C03030A1F003FFA4
:1007CC0006C0EE81FF812591EE83FF8305C0AE81CB
:1007DC00BF812D91AE83BF830E94F804503009F085
:1007EC0051503150EACF4BC020E3EE81FF810E9483
:1007FC00C305E887F987EE81FF813296EE83FF838C
:10080C00E885F985AA85BB85AE17BF0750F02F5F29
:10081C00A885B985EA85FB85EA1BFB0BEA87FB8774
:10082C00EFCF2A3328F003FF02C0295F01C0295DF6
:10083C0004FD1AC0213320F4A885B985119709F459
:10084C0009C0531710F000FF01C013C020E207FFCE
:10085C000BC020E3006102FF07C00B7F4A930E948C
:10086C000505503009F051500E94F804503009F041
:10087C0051503150A885B985129708F0B5CF00FFBB
:10088C0008C0503031F05150E0E2EA930E94050567
:10089C00F8CF10E0E0CEAC85BD850E94B5050E9476
:1008AC00D70564960895FF92F82E26970E94D205DC
:1008BC000E941905309719F4EFEFFFEF23C0DE010A
:1008CC0016960E942A058D010E941905EE83FF835E
:1008DC00E0E0E887E987DE011A960E942A050E946B
:1008EC00B505FA93EA931A930A93E5EEF2E0FA93BC
:1008FC00EA93DE011A96A3DE9F01AE81BF81E0E090
:10090C00EC93F9010E94D9052A96FF900895BA93A9
:10091C00AA93A991B991EE27FF276D91662311F047
:10092C003196FBCF0895BA93AA93AA27BB27E991D6
:10093C00F9910590002011F01196FBCFFD0108955F
:10094C00ECE9F1E0FA93EA9308950E9437050E94CE
:10095C00C70584E00E94590428960895EA93A0E004
:10096C000E947802ACE9B1E00C94A602E0E0F0E061
:10097C00FA93EA930895A0E0B0E00C949200E0E0C2
:10098C00EA93A1E00C947802EE83FF83AE81BF81E1
:10099C0008950E946F05F8CFECE3F0E00E949905F2
:1009AC000895AE81BF81ECE3F0E0F3CF0A921A9286
:1009BC00FA926A937A938A939A93AA93BA93EA9344
:1009CC00FA93EFB7EA9308950E946C02A3E0B0E0AB
:1009DC000C942005A0E30E94580288EC90E001974B
:1009EC00F1F708952A93AD85BE85EF85F8890995B1
:1009FC000895E889F9893497E88BF98B0895AD85CA
:100A0C00BE85EF85F88909950895A889B98914964A
:100A1C000E94B505B9CFA889B98914960E94B5056D
:100A2C00EA87FB870895DE011C960E942A050E9426
:100A3C00B5050895109639F080ED97E00197F1F720
:100A4C00A8951197C9F708950024AF0DB01D08950E
:100A5C00F195E195F0400895EF2FFF27E7FDFFEFAB
:100A6C0008956F2F660F660B762F08957A9F702D61
:100A7C006B9F700DF89F700DE99F700D6A9F602D34
:100A8C00710DFB9F600D711DE89F600D711D882716
:100A9C00FA9FF02D610D781FEB9FF00D611D781FF3
:100AAC00EA9FE02DF10D681F781F08950024112492
:100ABC0090E1AA0FBB1F001C111C0E1A1F0A18F480
:100ACC000E0E1F1E01C0A1609A9599F7FD01D00171
:100ADC00089537D0EBDF0EF4BBDF08953F934F93AF
:100AEC005F93002411244427552730E2AA0FBB1F23
:100AFC00881F991F001C111C441F551F0E1A1F0A1A
:100B0C00460B570B28F40E0E1F1E461F571F01C015
:100B1C00A1603A9559F7FD01BC01D001CA015F9162
:100B2C004F913F910895E894B7FF04C0A095B095FC
:100B3C0011966894F7FD8CDFB9DFFD010EF488DFA8
:100B4C000895E894F7FF02C083DF6894B7FF06C0EE
:100B5C00A095B095119600F8039400FA0895ED91C4
:100B6C00FC9111970895ED91FD916D917D910895F2
:100B7C007E936E93FE93EE9308950590F491E02D81
:100B8C0008957A936A93FA93EA93089530976040A4
:100B9C00704008955A934A933A932A931A930A935E
:100BAC0008955D814C813B812A81198108810895CA
:00000001FF
